:400000000080002011000000750A0000750A000080B500AF024A034B1B68136000F056FDBC760040FA46004010B5054C237833B9044B13B10448AFF300800123237010BDC6
:400040009081FF1F00000000244A0000084B10B51BB108480849AFF300800848036803B910BD074B002BFBD0BDE81040184700BF00000000244A00009481FF1F0881FF1F55
:400080000000000080B500AF074B00221A7003F073FD0346012B03D1034B00221A7002E0014B02221A7080BD4490FF1F98B500AF03F020FD0F4B1B7883F00103DBB2002B85
:4000C0000FD003F0D1FE0C4B1C6803F055FD03461A460A4B1A55084B1B680133064A136002E0044B00221A70054B01221A7003F053FD98BD648FFF1F4090FF1F688FFF1F7F
:400100004490FF1F80B500AF03F0A8FB024B01221A70024B1B7880BD4690FF1F6B64004080B400AF094B1B68084A1268013A0849895C074AD154054B1B680133034A136005
:40014000044B1B78BD465DF8047B70474090FF1F688FFF1F6F64004080B5A4B000AF0023C7F88C30964B00221A70964B00221A70954B01221A7007F10C03184604F0B6FB72
:40018000FB68184604F050FB012003F003FB62B603F002FD03F0D0F88C4803F05BFD8C4803F00AFD03F0A6FC0020002100F0FEFE884803F0B9FB884803F0D2FD874B0022BC
:4001C0001A60874B00221A6071233B7401237B744023BB74834B1B68DBB2FB7400233B7500237B757523BB7500F05EFB7E4B1B78002B52D1794B1B68212B4EDD7B4B1B782A
:40020000002B41D1794B5B78012B3DD1744B02221A600023C7F8883011E000F08DFB744B19783A1DD7F8883013440A461A70704B00221A70D7F888300133C7F88830D7F889
:400240008830062BE9DD3B1D184600F0DFFB034687F8863097F88630002B15D00023C7F888300BE000F068FB00F0BEFB604B00221A70D7F888300133C7F888305D4B1B6847
:40028000D7F888209A42EDDB544B00221A60544B00221A60584B00221A6001F035F80346002B06D001F024F80346002B01D001F0DBF901F01DF80346002B7FD001F012FA29
:4002C0000346002B7AD001F03DFA034687F8873097F887300D2B24D01B2B6ED0082B53D1D7F88C30002B1BDD07F11802D7F88C30134400221A70D7F88C30013BC7F88C30BC
:4003000000BF01F007FA0346002BFAD0082001F0BBF9202001F0B8F9082001F0B5F94DE04CE000F06DF8D7F88C30DBB23B7507F11003184600F088F807F118031846D7F8C9
:400340008C1000F045F900BF01F0E4F90346002BFAD001F0AFF903E000F036FA00F0A4FA184B1B7883F00103DBB2002BF4D1154B00221A70012003F00DFA204B00221A60A6
:400380000023C7F88C3019E007F11802D7F88C30134497F887201A70D7F88C300133C7F88C3000BF01F0B6F90346002BFAD097F88730184601F068F900E000BF14E700BFCC
:4003C0004690FF1FE081FF1F648FFF1F85000000AD00000005010000210100004090FF1FDC81FF1FBC81FF1F4490FF1F688FFF1F4590FF1FB881FF1FB481FF1FAC81FF1F6C
:4004000080B400AF0E4B00221A600D4B1B680D4A002142F823100A4B1B680133084A1360074B1B68074A012142F82310044B1B680133034A1360BD465DF8047B704700BF8B
:40044000AC81FF1FE481FF1F80B584B000AF78600023FB600023FB6009E07A68FB6813441B78184600F00AF8FB680133FB60FB68062BF2D91037BD4680BD00BF80B48FB050
:4004800000AF0346FB7100237B630FE0FA797B6B42FA03F303F001027B6B9B0007F138010B4443F82C2C7B6B01337B637B6B072BECDD454B1B68013B444A52F8233087F801
:4004C00033300723FB6276E0FB6A9B0007F13802134453F82C3C012B31D197F83330012B16D1394B1B68394A012142F82310364B1B680133344A1360334B1B68334A00216C
:4005000042F82310304B1B6801332F4A136047E02D4B1B682D4A002142F823102A4B1B680133294A1360284B1B68284A012142F82310254B1B680133234A136030E097F85A
:400540003330012B16D1204B1B68204A002142F823101D4B1B6801331B4A13601A4B1B681A4A012142F82310174B1B680133164A136015E0144B1B68144A012142F823109D
:40058000114B1B680133104A13600F4B1B680F4A002142F823100C4B1B6801330A4A1360094B1B68013B094A52F8233087F83330FB6A013BFB62FB6A002B85DA3C37BD467A
:4005C0005DF8047B704700BFAC81FF1FE481FF1F80B584B000AF786039600023FB6009E0FB687A6813441B78184600F00BF8FB680133FB60FA683B689A42F1DB1037BD468A
:4006000080BD00BF80B49BB000AF0346FB716C4B1B68013B6B4A52F8233087F8673097F86730012B16D1664B1B68664A012142F82310634B1B680133614A1360604B1B68A0
:40064000604A002142F823105D4B1B6801335C4A136015E05A4B1B685A4A002142F82310574B1B680133564A1360554B1B68554A012142F82310524B1B680133504A13605D
:400680004F4B1B68013B4F4A52F8233087F8673000233B660FE0FB7903F001023B6E9B0007F168010B4443F85C2CFB795B08FB713B6E01333B66FB79002BECD10623FB651B
:4006C00076E0FB6D9B0007F16802134453F85C3C012B31D197F86730012B16D1384B1B68384A012142F82310354B1B680133344A1360334B1B68334A002142F82310304BD8
:400700001B6801332E4A136047E02D4B1B682D4A002142F823102A4B1B680133284A1360274B1B68274A012142F82310244B1B680133234A136030E097F86730012B16D19B
:400740001F4B1B681F4A002142F823101C4B1B6801331B4A13601A4B1B681A4A012142F82310174B1B680133154A136015E0144B1B68144A012142F82310114B1B68013302
:400780000F4A13600E4B1B680E4A002142F823100B4B1B6801330A4A1360094B1B68013B084A52F8233087F86730FB6D013BFB65FB6D002B85DA6C37BD465DF8047B704798
:4007C000AC81FF1FE481FF1F80B582B000AF00237B604AE02D4B1B78002B2BD02B4B1B78022B27D1012002F0D5FF00F089F80346184603F039FD02460B46104619464FF0D9
:400800000002234B03F0C0FE02460B46104619464FF000021F4B03F08DFD02460B461046194603F099FF03463B603B68184602F033FF1FE07520FFF721FE174A7B6852F808
:400840002330DBB2184602F0A5FF02F0F7FF00BF124B1B7883F00103DBB2002BF8D10F4B00221A707B6801337B600D4B1B687A689A42AFDB0A4B1B687A689A4202D1094B3D
:4008800001221A700837BD4680BD00BF4490FF1F0000604000008940E481FF1F4690FF1FAC81FF1FE081FF1F80B500AF134B1B78012B04D0022B16D0002B0AD01DE00120A6
:4008C00003F080F8002003F013FA002003F02EFA13E0012003F00CFA002003F073F8002003F024FA09E0012003F020FA002003F069F8002003F0FCF900BF80BD4490FF1FF5
:4009000080B584B000AF0123FB608023BB6003F0B3FF0246B968FB68CB1A013392FBF3F103FB01F3D21AFB6813447B607B6818461037BD4680BD00BF80B483B000AF002334
:400940007B6042E0254B1B68013B254AD35CFB70224B1B68224AD35C012B17D1FB78012B0FD17B68C3F10703012202FA03F3DAB21C4B1B78DBB21343DBB2DAB2194B1A70FE
:400980001BE0184B1A78174B1A7016E0FB78012B04D1144B1A78134B1A700EE07B68C3F10703012202FA03F3DAB20E4B1B78DBB21343DBB2DAB20B4B1A70084B1B68023315
:4009C000064A13607B6801337B607B68072BB9DD0C37BD465DF8047B704700BFDC81FF1F688FFF1F4590FF1F80B500AF064B1B7803F07F03DAB2044B1A70034B1B781846A3
:400A000002F0AAFC80BD00BF4590FF1F80B485B000AF78600023FB737B681B78712B20D17B6801331B78012B1BD17B6803331B78002B0ED07B6803331B78402B09D07B6861
:400A400003331B78412B04D07B6803331B78422B07D17B6804331B781A46054B1A600123FB73FB7B18461437BD465DF8047B7047B881FF1F80B400AFFEE700BF80B584B01F
:400A800000AF78600F4B1A687B6813441A460E4BD31A802B09DC0B4B1B68FB60094B1A687B681344074A136007E003F07DFE02460C2313604FF0FF33FB60FB681846103748
:400AC000BD4680BD0C81FF1F2091FF1F80B586B000AF224B7B61224B3B61204B7B6135E03B691B68FB603B695B68BB603B699B683B6000237B600CE0FB681A68BB681A60C2
:400B0000BB680433BB60FB680433FB607B6804337B607A683B689A42EED13B69DB683B6000237B6008E0BB6800221A60BB680433BB607B6804337B607A683B689A42F2D181
:400B40003B6910333B617B69013B7B617B69002BC6D103F02FFEFFF7FFFAFEE701000000044F000080B582B000AF174B174A1A60174A174B1B6843F40073136000237B6054
:400B80000FE07B68032B04D8124A7B6852F8233000E0114B11497A6841F822307B6801337B607B682F2BECD90D4B1B78DAB20D4B1A700D4B094A1A6000F03CF90B4B00226B
:400BC0001A600837BD4680BD0CED00E00004FA0514ED00E000000000750A00000080FF1FBC7600400481FF1F08ED00E00081FF1F80B582B000AF78603960786800213A686F
:400C000003F009FE0837BD4680BD00BF80B584B000AFF860B9607A60F868B9687A6803F0EFFD1037BD4680BD80B584B000AFF860B9607A60F868B9687A6803F0E1FD103772
:400C4000BD4680BD80B483B000AF0346FB71FEE780B487B000AF7860396000233B6100237B6127E07B699B007A6813441B68BB60BB68FB73BB6823F0FF03BB6014E03B6962
:400C80005B003A6813441B781A46BB68134419463B695B003A6813445B780B703B6901333B61FB7B013BFB73FB7B002BE7D17B6901337B617B691A2BD4D91C37BD465DF86C
:400CC000047B704780B582B000AF364B00221A80354B58221A70354B00221A80344B58221A70344B17221A80334B19221A70334B06221A70324B52221A70324B324A127865
:400D0000D2B21A70314B40F618021A80304B41F251221A800023FB7019237B6014E0FB785B00DAB22B4B1B78DBB203F00103DBB21343DBB203F00303FB704FF4F07002F09B
:400D400073FC7B68013B7B607B68002B02D0FB78032BE4D17B68002B02D10320FFF772FF1D4B4FF480721A801B4B07221A701B4B00221A701A4B48221A70174B00221A70A0
:400D8000184B00221A70184B02221A70174A174B1B78DBB243F00703DBB213700837BD4680BD00BF80400040824000408440004086400040884000408A4000400043004004
:400DC00000420040A14600400F0100492242004020420040254200400440004006400040084000400940004001400040A243004080B483B000AF0B4B1B78FB710A4AFB7910
:400E000003F00703DBB21370084AFB791B09DBB21370074B44221A700C37BD465DF8047B704700BFCF0100496E5800406F5800407658004080B582B000AF72B6414B0022B9
:400E40001A70FFF73FFF404A3F4B1B78DBB243F00403DBB213700023FB7113E0FA7913465B0013445B00394A13443B603B681A683B689B889BB210461946FFF7B9FEFB7958
:400E80000133FB71FB79062BE8D931483149FFF7DFFE314A304B1B78DBB243F00203DBB213702E4A2D4B1B78DBB243F00203DBB213702B4A2A4B1B78DBB243F04003DBB2A3
:400EC0001370284A274B1B78DBB243F01003DBB21370254825490822FFF7A6FE244825490A22FFF7A1FE244824490A22FFF79CFE234824490822FFF797FE234823490822B8
:400F0000FFF792FE224823490A22FFF78DFE224822490822FFF788FE214B84221A70214A204B1B78DBB243F00803DBB21370FFF75FFF1D480A490E22FFF768FE0837BD4673
:400F400080BD00BF00480040E8460040284A0000544A0000C04A00000350014013500140A0430040C243004002510040B44C0000C0510040BC4C0000F0510040C84C000044
:400F800012510040D44C000022510040DC4C000030510040E44C000062510040F04C0000DB0E014022430040B043004080B582B000AF03460A46FB711346BB71084B1B78EB
:400FC000002B04D100F00EF8054B01221A70FA79BB791046194600F0CBF80837BD4680BDC081FF1F80B582B000AF02F03CFB0346FB714F4A4E4B1B78DBB243F00103DBB207
:4010000013704C4A4B4B1B78DBB243F00103DBB21370494B01221A70484B02221A70484A474B1B78DBB203F07F03DBB21370002002F054FB434A434B1B78DBB223F0060397
:40104000DBB21370404A404B1B78DBB223F02003DBB213703B4A3B4B1B78DBB243F00103DBB21370012002F039FB282002F036FB364A364B1B78DBB203F07F03DBB213701B
:40108000324A324B1B78DBB223F04003DBB213702C4A2C4B1B78DBB243F00203DBB21370022002F01BFB274A264B1B78DBB243F00403DBB21370264B00221A70254B002237
:4010C0001A70FB79184602F0D2FA1720224902F017FB1720072102F03BFB15201F4902F00FFB1520072102F033FB18201C4902F007FB1820072102F02BFB0420194902F012
:40110000FFFA0420072102F023FB0520164902F0F7FA0520072102F01BFB0620134902F0EFFA0620072102F013FB0837BD4680BDA5430040B54300409D600040096000402E
:40114000106000409443004012600040F85100408460004085600040AD1E0000A11E00006D1700009D1D0000F11D0000451E000080B584B000AF03460A46FB711346BB7149
:401180000023FB7306E0FB7B294A0121D154FB7B0133FB73FB7B012BF5D9264B4FF400021A60244B4FF080721A60224B10221A60204B20221A601F4B40221A601E4B0022A5
:4011C0001A70BB79002B02D0012B04D007E01B4B02221A7007E0194B03221A7003E0174B02221A7000BF164AFB791370154B00221A70154B00221A70144B00221A70144BB4
:4012000000221A70134B00221A70134B00221A70124B03221A70124B80221A70012002F003FA104B04221A701037BD4680BD00BFE890FF1F00E100E0E090FF1F096000406A
:40124000E190FF1F5390FF1F5490FF1F5290FF1FE690FF1F5590FF1F5190FF1F28600040086000401260004080B483B000AF0023FB7106E0FB79144A0121D154FB790133D8
:40128000FB71FB79012BF5D9104B00221A70104B00221A700F4B00221A700F4B00221A700E4B00221A700E4B00221A700D4B00221A700D4B03221A700C4B80221A700C375F
:4012C000BD465DF8047B7047E890FF1FE090FF1F5390FF1F5490FF1F5290FF1FE690FF1F5590FF1F5190FF1F286000400860004080B400AF034B1B78DBB21846BD465DF82C
:40130000047B70475390FF1F80B483B000AF0023FB71094B1B78DBB2002B05D0064B1B78FB71054B00221A70FB7918460C37BD465DF8047B704700BF5290FF1F80B485B046
:4013400000AF0346FB710023FB81FB79002B20D0FB79082B1DD8FB79013BDBB21B017B737A7B0F4B13441B78DBB29BB203F00F03FB81FB891B0299B27A7B0A4B13441B7844
:40138000DBB29BB20A4613439BB2FB81FB89023BFB81FB8918461437BD465DF8047B70470C6000400D60004090B484B000AF03463960FB711346BB80FB79002B69D0FB793E
:4013C000082B66D8FB79013BDBB21B017B737A7B324B1344BB60B988FA79314813465B0013449B000344DB889BB2C3F5007399420BD9FA792A4913465B0013449B000B44C2
:40140000DB889BB2C3F50073BB807A7B254B13441C46BB881B0A9BB2D9B2FA79204813465B0013449B000344DB78DBB20B43DBB223707A7B1C4B1344BA88D2B21A703B687C
:40144000002B0FD00023FB8108E0FB893A6813441A78BB681A70FB890133FB81FA89BB889A42F2D3FA790E4913465B0013449B000B4400225A707A7B0C4B13441846FA7965
:40148000074913465B0013449B000B445B79DBB203701037BD4690BC704700BF886000407090FF1F0C6000400D6000400E60004080B586B000AF03463960FB711346BB80BE
:4014C000FB79002B30D0FB79082B2DD83B68002B2AD0FB79013BDBB21B017B757A7D164B13443B61FB791846FFF728FF0346FB81BA88FB899A4201D9FB89BB800023FB82B6
:4015000009E0FB8A3A6813443A691278D2B21A70FB8A0133FB82FA8ABB889A42F1D3FB79184600F00BF801E00023BB80BB8818461837BD4680BD00BF8860004080B485B0E8
:4015400000AF0346FB71FB79002B1ED0FB79082B1BD8FB79013BDBB21B01FB73FA790D4913465B0013449B000B4400225A70FA7B094B13441846FA79064913465B00134424
:401580009B000B445B79DBB203701437BD465DF8047B70477090FF1F0E60004080B582B000AF0023FB71294B1B78DBB2DBB25BB2002B11DA264B1B78DBB2212B00D00AE048
:4015C000244B07221A80234B234A5A6000F04AFA0346FB7100BF34E01C4B1B78DBB2DBB25BB2002B2DDB1A4B1B78DBB2202B02D0222B13D025E0174B07221A80154B164A58
:401600005A60164B1B78DBB243F00103DAB2134B1A7000F0A9FA0346FB7112E0104B1B78DBB29AB20F4B1A800C4B1B78DBB243F00203DAB2094B1A7000F036FB0346FB71E0
:4016400000BFFB7918460837BD4680BD00600040016000406090FF1F1081FF1F4C90FF1F026000404A90FF1F80B500AF044B00221A70044B1B78DBB21846FFF75FFF80BD8B
:401680004C90FF1F4890FF1F80B584B000AF0346FB71FB79FB73064B1B78DAB207F10F03104619460122FFF77FFE1037BD4680BD4990FF1F80B582B000AF084A3B1D1288EE
:4016C0001A80074B1B78DAB23B1D104619460222FFF76AFE0837BD4680BD00BFF84C00004990FF1F80B400AF084B1B78DBB21946074A0B465B000B449B0013445B78DBB284
:401700001846BD465DF8047B704700BF4890FF1F7090FF1F80B400AF084B1B78DBB21946074A0B465B000B449B0013445B78DBB21846BD465DF8047B704700BF4990FF1FF5
:401740007090FF1F80B582B000AF074B1B78DAB2FB1D104619460122FFF7AAFEFB7918460837BD4680BD00BF4890FF1F80B582B000AF374B1B78BB71BB7903F01003002B74
:4017800063D00123FB71BB795BB2002B13DABB7903F00F03012B02D00023FB711DE000F061F82C4B1B78DBB2DBB25BB2002B14DA0023FB7111E0BB7903F04003002B02D0D0
:4017C00000F094F809E0BB7903F02003002B02D000F0B2F801E00023FB71FB79002B34D01B4B1B78BB71BB795BB2002B2DDB1A4B1B78DAB2194B1B78DBB21343BB71184A0B
:40180000BB791370164B1B78DBB2BA799A421CD1104B1B78FB710E4B1B78DBB223F07F03BB71BB79002B0AD1094B0A4A1278D2B21A70074B1B78DBB203F00F03FB71054B33
:401840001B78DBB2FA799A42E2D10837BD4680BD286000405090FF1F5690FF1F6C90FF1F2960004080B582B000AF1D4B1B78FB711B4AFB7913701A4B1B78FB71FB795BB25C
:40188000002B03DA174AFB79137025E0022000F04BFA154B1B78DBB203F06003202B08D0402B0BD0002B0ED100F0ECFC0346FB710CE002F03FFB0346FB7107E001F0CEFC27
:4018C0000346FB7102E00023FB7100BFFB79002B02D1044B03221A700837BD4680BD00BF286000405090FF1F0060004080B500AF104B1B78DBB2062B19D801A252F823F06E
:401900002F1900002F1900001D1900002F190000231900002F1900002919000000F0FEF806E000F0B1F903E000F0DAF900E000BF80BD00BFE090FF1F80B500AF124B1B78CA
:40194000DBB2062B1DD801A252F823F0831900008319000069190000831900006F190000831900007519000000F0DEF80AE000F02FF907E0032000F0D7F9044B03221A701C
:4019800000E000BF80BD00BFE090FF1F5090FF1F80B483B000AF0023FB712B4B1B78DBB29AB22A4B1B889BB213449AB2274B1A8019E0FB7903F1804303F5C0431A46244B77
:4019C0005B681B78DBB21370214B5B680133204A5360FB790133FB711D4B1B889BB2013B9AB21B4B1A801A4B1B889BB2002B02D0FB79072BDDD9144B1B78DBB2082B02D0DB
:401A0000FB79002B0FD0134B1B78DBB283F07F03DB43DAB20F4B1A700F4B0F221A700F4B02221A7005E00C4B02221A700B4B02221A70054AFB791370094AFB7913700C3749
:401A4000BD465DF8047B70475190FF1FDE90FF1F6090FF1F5690FF1F5090FF1FE090FF1F6C90FF1F80B582B000AF164B1B889BB2002B02D100F030F81EE0134B02221A700E
:401A8000124B00221A7000F06FF9114B1B78DBB21B029AB20F4B1B78DBB29BB213439BB2FB80084B1B889BB2FA889A4202D2054AFB881380FFF76CFF012318460837BD46FC
:401AC00080BD00BF6090FF1FE090FF1F5690FF1F076000400660004080B400AF0A4B02221A700A4B80221A70094B0F221A70094B00221A70084B00221A7001231846BD4603
:401B00005DF8047B704700BFE090FF1F5690FF1F5090FF1F5190FF1F6C90FF1F80B500AFFFF736FF80BD00BF80B500AF0A4B1B78DBB29AB2094B1B889BB213449AB2074BC9
:401B40001A80074B00221A70012000F0EDF8054B03221A7080BD00BF5190FF1FDE90FF1FE090FF1F5090FF1F80B582B000AF124B04221A70114B80221A7000F0F5F8104BE2
:401B80001B78DBB21B029AB20E4B1B78DBB29BB213439BB2FB800C4B1B889BB2FA889A4202D2094AFB881380084B0B221A70012318460837BD4680BDE090FF1F5690FF1F39
:401BC00007600040066000406090FF1F5090FF1F80B483B000AF0023BB71254B1B78DBB203F00F03DBB2023BFB71FB799AB2214B1B889BB213449AB21E4B1A801BE01E4B36
:401C00005A68BB7903F1804303F5C0431B78DBB21370194B5B680133174A5360BB790133BB71FB79013BFB71134B1B889BB2013B9AB2114B1A80104B1B889BB2002B02D026
:401C4000FB79002BDBD10D4AFB7913700C4B1B78DBB283F07F03DB43DAB2094B1A70094B0B221A700C37BD465DF8047B704700BF29600040DE90FF1F6090FF1F6C90FF1FBF
:401C80005690FF1F5090FF1F80B500AF044B00221A70012000F048F8024B03221A7080BDE090FF1F5090FF1F80B400AF084B06221A70084B06221A70074B80221A70074B70
:401CC00000221A7001231846BD465DF8047B7047E090FF1F5090FF1F5690FF1F6C90FF1F80B500AF0C4B1B78DBB2002B0AD00B4A094B1B78DBB263F07F03DBB21370064B1F
:401D000000221A70064B00221A70012000F00CF8044B03221A7080BDE690FF1F08600040E090FF1F5090FF1F80B483B000AF0346FB710B4B9B68002B0CD0094B9B68FA79ED
:401D40001A70074B9B68074A128892B25A80044B00229A600C37BD465DF8047B704700BF6090FF1FDE90FF1F80B400AF094B00221A80094B9B68002B07D0074B9B68002223
:401D80001A70054B9B6800225A80BD465DF8047B704700BFDE90FF1F6090FF1F80B400AF104B1B78104B1B7BDBB203F00303012B08D00D4BDB7BDBB283F07F03DB43DAB23D
:401DC000094BDA73084B01225A73084A074B1B78DBB223F00103DBB21370BD465DF8047B704700BF0E6000407090FF1F0B60004080B400AF104B1B78104B1B7EDBB203F00B
:401E00000303012B08D00D4BDB7EDBB283F07F03DB43DAB2094BDA76084B01225A76084A074B1B78DBB223F00203DBB21370BD465DF8047B704700BF1E6000407090FF1FBC
:401E40000B60004080B400AF124B1B78124B93F82430DBB203F00303012B0AD00E4B93F82730DBB283F07F03DB43DAB20A4B83F82720094B012283F82520084A074B1B7830
:401E8000DBB223F00403DBB21370BD465DF8047B704700BF2E6000407090FF1F0B60004080B400AFBD465DF8047B704780B500AFFFF7DAF980BD00BF80B582B000AF002334
:401EC000FB716F4B1B78BB716E4B1B78DBB2DBB25BB2002B6DDA6C4B1B78DBB2013B052B65D801A252F823F0471F0000611F00008D1F0000AF1F0000AF1F0000011F00004A
:401F0000624B1B78DBB2212B0BD100F0CBF8604B1B889BB2002B15D0FFF7A4FD0346FB7146E05A4B1B78DBB2222B0BD100F0F8F8574B1B889BB2002B04D0FFF793FD0346AE
:401F4000FB7135E034E000F033F9514B1B889BB2002B04D0FFF786FD0346FB7128E027E0BB79012B11D84B4B1B78DBB2002B0CD1474B01221A80BB79474A1344444A536035
:401F8000FFF770FD0346FB7112E011E0BB79012B0CD83F4B01221A80BB79404A13443C4A5360FFF75FFD0346FB7101E000E000BF61E0344B1B78DBB2DBB25BB2002B5ADBEC
:401FC000314B1B78DBB20A2B11D00B2B3FD0092B00D050E000F0ECF82D4B1B889BB2002B04D0FFF7C1FD0346FB7144E043E0BB79012B2BD8274B1B78DBB2002B26D1BB7980
:40200000224A1278D1B2244AD154BB79224AD35CDAB2BB792249CB5CDBB29A4204D2BB791F4A0021D1540CE0BB791D4AD35CDBB2012B06D9BB79BA7917498A5CD1B2184A71
:40204000D154FFF731FE0346FB7114E013E0BB79012B0FD80F4B1B78DBB2012B0AD8BB790C4A1278D1B20D4AD154FFF71DFE0346FB71FFE700BFFB7918460837BD4680BDDC
:40208000046000400060004001600040036000406090FF1F02600040F090FF1FE890FF1FEC90FF1F80B584B000AF194B1B78DBB2013BDBB2184600F021FFF860154B1B78FC
:4020C000FB72FB7A0233DB00FA681344FB60FB685B68FB60FB7A104AD35CDBB2DB00FA681344FB60FB685B68FB60FB682033FB60FB685B687B607B681B78DBB29AB2074BAB
:402100001A80064A7B6853601037BD4680BD00BF5390FF1F046000405C90FF1F6090FF1F80B584B000AF1E4B1B78DBB2013BDBB2184600F0E3FEF8601A4B1B78FB72FB7A51
:402140000233DB00FA681344FB60FB685B68FB60FB7A154AD35CDBB2DB00FA681344FB60FB685B68FB60FB681833FB60FB685B687B607B6801331B78DBB21B029AB27B682D
:402180001B78DBB29BB213439BB29AB2074B1A807B680233054A53601037BD4680BD00BF5390FF1F046000405C90FF1F6090FF1F80B584B000AF2D4B00221A802C4B1B7864
:4021C000DBB2013BDBB2184600F098FEF860294B1B78FB72284B1B78BB72BB7A0233DB00FA681344FB60FB685B68FB60BB7A012B38D8BB7A214AD35CDBB2DB00FA6813446B
:40220000FB60FB685B68FB60FB7A002B2AD0FB7A032B27D8FB7A03F10053013BDB00FA681344FB60164B1B78FB72FB681B78FA7A9A4217D8FB685B687B60FA7A13465B00E0
:4022400013449B001A467B6813447B607B685B68064A53607B681A88044B1A807B689B68024A93601037BD4680BD00BF6090FF1F5390FF1F03600040046000405C90FF1F15
:402280000260004080B586B000AF0023FB7500233B619D4B00221A809C4B1B78DBB2DBB25BB2002B80F20681994B1B78DBB20A2B00F2FE8001A252F823F000BF0524000016
:4022C000B1240000B1240000B1240000B1240000B1240000E9220000B12400007B240000B1240000912400008A4B1B78DBB2012B0ED100F02DFEB860BB685B68824A536014
:40230000814B12221A80FFF7ADFB0346FB7578E0804B1B78DBB2022B24D17F4B1B78DBB2184600F0EBFDB860BB68002B69D0BB685B68754A5360744B5B6803331B78DBB258
:402340001B029AB2704B5B6802331B78DBB29BB213439BB29AB26C4B1A80FFF783FB0346FB75A6E06B4B1B78DBB2032B44D10023FB736A4B3B6109E03B691B78FB71FB79E6
:402380003A6913443B61FB7B0133FB73624B1B78DBB2FA7B9A4204D23B691B78DBB2002BEAD15D4B1B78DBB2EE2B01D15C4B3B61594B1B78DBB2002B0BD0574B1B78DAB250
:4023C000584B1B7C9A4204D1574800F0ADF9564B3B613B691B78DBB2002B12D03B691B78DBB29AB2484B1A80474A3B695360FFF739FB0346FB755CE001F09CFD0346FB7528
:4024000057E056E0414B1B78DBB203F00303002B1FD0022B00D02FE03B4B02221A80434B1B78DBB203F07F02414913465B0013449B000B449B78DAB23E4B1A703D4B002223
:402440005A70314B3B4A5A60FFF70CFB0346FB7512E02D4B02221A80374B1B78DAB2354B1A70344B00225A70274B324A5A60FFF7F9FA0346FB7500BF1BE0234B01221A80B4
:40248000214B2E4A5A60FFF7EDFA0346FB7510E01D4B01221A80254B1B78DBB21A46284B1344194A5360FFF7DDFA0346FB7500E000BF20E1164B1B78DBB2013B0A2B00F2F9
:4024C000198101A252F823F0D9250000F526000067260000F5260000F5240000F5260000F5260000F526000049250000F52600009F250000084B1B78DAB2124B1A70FFF77B
:40250000D3FB0346FB75F6E06090FF1F00600040016000400360004002600040684D0000A04E0000104D0000F490FF1F046000407090FF1FC481FF1F5590FF1F5390FF1FDF
:402540005C90FF1FE690FF1F6D4B1B78BB71BB79002B06D0BB79013BDBB2184600F0CEFCB860BB79002B02D0BB68002B02D1BB79002B13D1634B1B78DBB2BA799A4208D09A
:40258000604ABB791370604B01221A70012000F0D3F9FFF789FB0346FB75ACE0ABE000F021FE0346002B16D0584B1B787B71584A7B791370544B01221A7000F061FB7B790B
:4025C0007A7954498A5CD1B2534AD154FFF76CFB0346FB758FE08EE0504B1B78DBB203F00303012B22D0012B0DD3022B00D039E0434B1B78DBB2002B04D100F051FD034604
:40260000FB752FE02EE03E4B1B78DBB2012B0CD1434B1B78DBB223F00203DAB2404B1A70FFF742FB0346FB751CE01BE0374B1B78DBB2012B15D8324B1B78DBB2DB43DBB20E
:40264000324A1278D2B211461046364A125CD2B21340DAB2334B5A54FFF726FB0346FB75FFE700BF47E02D4B1B78DBB203F00303012B22D0012B0DD3022B00D039E0204BCE
:402680001B78DBB2002B04D100F09AFC0346FB752FE02EE01A4B1B78DBB2012B0CD1204B1B78DBB243F00203DAB21D4B1A70FFF7FBFA0346FB751CE01BE0144B1B78DBB2B5
:4026C000012B15D80E4B1B78DBB2DB43DBB20F4A1278D2B211461046124A125CD2B21340DAB2104B5A54FFF7DFFA0346FB75FFE700BF00E000BFFB7D18461837BD4680BD22
:40270000026000405390FF1F5290FF1F046000405490FF1F5C90FF1FDC90FF1F006000405590FF1FE490FF1F90B488B000AF78600023BB771F4B07F10C040FCB84E80F0068
:402740007B68002B32D07B6822221A707B68013303221A700223FB7725E0BB7F03F1924303F580731B787B77BB7F0133BB77FB7F7A6813447A7F1209D2B207F120010A4471
:4027800012F8142C1A70FB7F02337A6813447A7F02F00F0207F120010A4412F8142C1A70FB7F0433FB77FB7F212BD6D92037BD4690BC7047FC4C000080B483B000AF0123AF
:4027C000FB710023BB7197E0BB7903F1804303F5C1430C221A70FA794E4913465B0013449B000B445B79DBB2002B18D0FA79494913465B0013449B000B441B79DBB2DBB2ED
:402800005BB2002B05DABA79434B13440C221A700AE0BA79404B134408221A7004E0BA793D4B134480221A70BA793C4B13441846FA79384913465B0013449B000B44083349
:402840001B889BB21B0A9BB2DBB20370BA79344B13441846FA792F4913465B0013449B000B4408331B889BB2DBB20370BA792D4B13441846FA79274913465B0013449B009B
:402880000B44DB889BB2DBB20370BA79264B13441846FA791F4913465B0013449B000B44DB889BB21B0A9BB2DBB20370BA791F4B13441846FA79174913465B0013449B0003
:4028C0000B44DB889BB2DBB20370BA79184B13441846FA790F4913465B0013449B000B44DB889BB21B0A9BB2DBB20370FB790133FB71BB791033BB71BB795BB2002BBFF6D4
:4029000063AF0C4BFF221A700C37BD465DF8047B704700BF7090FF1F0E6000400C6000400D600040866000408760004084600040856000400A60004080B588B000AF034629
:40294000FB7100237B830023FB7743E0FA7FA24913465B0013449B000B4400221A70FA7F9D4913465B0013449B000B4400229A70FA7F994913465B0013449B000B4400221B
:402980005A70FA7F944913465B0013449B000B440022DA70FA7F904913465B0013449B000B4400225A71FA7F8B4913465B0013449B000B44083300221A80FA7F8649134688
:4029C0005B0013449B000B44083300229A70FB7F0133FB77FB7F082BB8D9FB79002B10D000237B770AE07B7F7C4A0021D1547B7F7B4A0021D1547B7F01337B777B7F012BA7
:402A0000F1D9784B1B78DBB2002B00F03281754B1B78DBB2013BDBB2184600F06FFA38613B695B68FB60FB6807331B7803F04003002B08D06C4B1B78DBB243F00103DAB25D
:402A4000694B1A7007E0684B1B78DBB223F00103DAB2654B1A703B6908333B613B691B78FB7701237B77ADE03B695B687B610023BB779FE07A7F7B699B7803F07F039A4262
:402A800040F092807A7F544913465B0013449B000B4408331B889AB27B699B889A420BD27A7F7B6998884C4913465B0013449B000B44083302461A807B691B781A46474B52
:402AC0009B5CDAB27B695B789A426DD17B69DB7803F00303FB727B699B78DBB25BB2002B26DA7A7F3C4913465B0013449B000B4401225A707A7FFB7A012B01D1072000E056
:402B00000D20354913465B0013449B000B4402465A717B699B790A2B03D07B699B79022B2CD1FB7A032B29D0304A7B7F137025E07A7F294913465B0013449B000B440022A6
:402B40005A707A7FFB7A012B01D1052000E00920214913465B0013449B000B4402465A717B699B790A2B03D07B699B79022B05D1FB7A032B02D01E4A7B7F13707A7F7B694D
:402B80009878154913465B0013449B000B4402461A717A7F7B69D8780F4913465B0013449B000B4402461A707B6908337B61BB7F0133BB77BA7FFB7F9A42FFF45BAF7B7F72
:402BC00001337B777B7F082B7FF64EAF3B695B687B6100237B7722E07090FF1F5C90FF1FDC90FF1F5390FF1F5590FF1F4990FF1F4890FF1F7B699B7803F07F027B69187834
:402C00001D4913465B0013449B000B44083302469A707B6908337B617B7F01337B777A7FFB7F9A42E6D300F0A5F90246134B1A600123FB7718E0FA7F0F4913465B00134471
:402C40009B000B447A8BDA80FA7F0B4913465B0013449B000B4408331B889AB27B8B13447B83FB7F0133FB77FB7F082BE3D9FFF7A3FD2037BD4680BD7090FF1F5890FF1FEA
:402C800080B584B000AF914B1B78DBB2002B00F01A818E4B1B78DBB2013BDBB2184600F02DF978607B6808337B607B681B78FB707B685B68BB600023FB73FFE0BB681B787B
:402CC0001A46834B9B5CDAB2BB681B781946814B5B5CDBB29A4200F0EB80BB681B781A467B4B9B5CDAB2BB685B789A4240F0E080BB681A78784B1B78DBB29A4240F0D8800A
:402D0000BB689B7803F07F03BB70BB78013BDBB21B017B70BB68DB7803F003033B70BB689B78DBB25BB2002B18DABA786B4913465B0013449B000B4401225A70BA783B7806
:402D4000012B01D1072000E00D20644913465B0013449B000B4402465A7117E0BA785F4913465B0013449B000B4400225A70BA783B78012B01D1052000E0092057491346B0
:402D80005B0013449B000B4402465A717A78544B134401221A70BA78BB6898884F4913465B0013449B000B44083302461A80BA78BB689878494913465B0013449B000B44C4
:402DC00002461A71BA78BB68D878444913465B0013449B000B4402461A70BA783F4913465B0013449B000B440022DA707A783D4B13441846BA78394913465B0013449B0063
:402E00000B4408331B889BB21B0A9BB2DBB203707A78354B13441846BA78304913465B0013449B000B4408331B889BB2DBB203707A782E4B13441846BA78284913465B003D
:402E400013449B000B44DB889BB2DBB203707A78274B13441846BA78204913465B0013449B000B44DB889BB21B0A9BB2DBB203707A78204B13441846BA78184913465B003D
:402E800013449B000B44DB889BB2DBB203707A78194B13441846BA78104913465B0013449B000B44DB889BB21B0A9BB2DBB20370BB680833BB60FB7B0133FB73FA7BFB78FB
:402EC0009A42FFF4FBAE1037BD4680BD5390FF1F5C90FF1FDC90FF1F046000407090FF1F0E6000400C6000400D6000408660004087600040846000408560004080B485B076
:402F000000AF0346FB71104B1B78DBB20F4ADB0013445B68FB60FB680833FB60FB681B78FA799A4202D30023FB6005E0FB79DB00FA6813445B68FB60FB6818461437BD465E
:402F40005DF8047B704700BFE190FF1F984E000080B400AF054B1B78DBB2054ADB0013445B681846BD465DF8047B7047E190FF1F984E000080B584B000AF104B1B78DBB207
:402F8000013BDBB21846FFF7B9FFB860BB68002B0DD0BB685B681B79FB71FB790233DB00BA681344BB60BB685B68FB6001E00023FB60FB6818461037BD4680BD5390FF1F12
:402FC00080B582B000AF0023FB71324B1B78DBB203F07F03BB71BB79013BDBB21B017B71BB79002B51D0BB79082B4ED8BA79B97929480B465B000B449B0003449B78DBB289
:4030000043F00103D8B2244913465B0013449B000B4402469A70BA791F4913465B0013449B000B440022DA70BA79B9791A480B465B000B449B0003445B78DBB243F00203E3
:40304000D8B2154913465B0013449B000B4402465A70BA79104913465B0013449B000B441B79DBB2DBB25BB2002B05DA7A790B4B13448D221A7004E07A79084B1344892216
:403080001A70FEF711FE0346FB71FB7918460837BD4680BD046000407090FF1F0E60004080B582B000AF0023FB714A4B1B78DBB203F07F03BB71BB79013BDBB21B017B710C
:4030C000BB79002B00F08180BB79082B7DD8BA79B97941480B465B000B449B0003449B78DBB223F00103D8B23B4913465B0013449B000B4402469A70BA79374913465B0086
:4031000013449B000B440022DA707A79334B134419467A79314B13441B78DBB203F07F03DBB20B70BA79B9792B480B465B000B449B0003445B78DBB223F00203D8B2264932
:4031400013465B0013449B000B4402465A70BA79214913465B0013449B000B441B79DBB2DBB25BB2002B16DABA791B4913465B0013449B000B445B78DBB2012B05D17A79FF
:40318000174B13440C221A701BE07A79144B13440D221A7015E0BA790F4913465B0013449B000B445B78DBB2012B05D17A790C4B134408221A7004E07A79094B1344092268
:4031C0001A70FEF771FD0346FB71FB7918460837BD4680BD046000407090FF1F0C6000400E60004080B584B000AF0123FB73164B1B78BB73154B1B78DBB2013BDBB218464D
:40320000FFF77CFEB860BB685B681B79FB71BA7BFB799A4202D2BB7B012B02D90023FB730CE0BB7BBA7B0A498A5CD1B2094AD154BB7B094A1278D1B2054AD154FB7B184690
:403240001037BD4680BD00BF046000405390FF1F5C90FF1FDC90FF1F0260004080B582B000AF0023FB710F4B1B78DBB2DBB25BB2002B12DA0C4B1B78DBB2012B00D00CE0FE
:403280000A4B0B4A5A600A4B1B789AB2074B1A80FEF7E8FB0346FB7100BFFB7918460837BD4680BD00600040016000406090FF1FB44E000080B500AF282000F0EDF9032077
:4032C00000F082F9052000F0E7F9032000F07CF90F2000F0E1F9032000F076F9012000F0DBF9022000F070F9052000F0D5F9062000F058F80E2000F055F82C2000F052F8D1
:40330000082000F04FF8012000F04CF80C2000F049F8032000F046F8052000F0BDF980BD80B500AF0C2000F03DF8024B01221A7080BD00BFC881FF1F80B500AF054B1B78CA
:40334000002B04D1FFF7B6FF024B01221A70FFF7E7FF80BDC981FF1F80B582B000AF0346FB71FB79184600F003F80837BD4680BD80B584B000AF0346FB7100F02DF8FB79CA
:403380001B09FB73FB7B184600F0E2F8FB7903F00F03FB73FB7B184600F0DAF81037BD4680BD00BF80B584B000AF0346FB7100F013F8FB791B09FB73FB7B184600F004F98B
:4033C000FB7903F00F03FB73FB7B184600F0FCF81037BD4680BD00BF80B582B000AF4FF4CA737B60554A554B1B78DBB223F07F03DBB21370524B1B78DBB223F00F03FB7026
:403400004F4AFB7843F00F03DBB213704D4B1B78DBB223F00F03FB704A4AFB7813704A4B1B78DBB223F00F03FB70474AFB781370424A424B1B78DBB223F02003DBB213700E
:403440003E4A3E4B1B78DBB243F04003DBB21370002000F043F9394A384B1B78DBB243F01003DBB21370012000F038F9374B1B78FB70324A314B1B78DBB223F01003DBB240
:403480001370002000F02AF9FB7803F00803FB702A4A2A4B1B78DBB243F01003DBB21370012000F01BF9254A244B1B78DBB223F01003DBB21370FB78002B02D10A2000F037
:4034C0000DF97B68013B7B60FB78002B02D07B68002BBDD1194A194B1B78DBB223F04003DBB21370154A154B1B78DBB223F07F03DBB21370124A124B1B78DBB223F00F03F1
:40350000DBB213700F4B1B78DBB223F00F03FB700C4AFB7843F00F03DBB213700A4B1B78DBB223F00F03FB70074AFB7843F00F03DBB213700837BD4680BD00BF2051004046
:403540002251004023510040245100402151004080B582B000AF0346FB711A4A194B1B78DBB243F02003DBB21370164A154B1B78DBB223F04003DBB21370002000F0AEF868
:40358000104A104B1B78DBB223F00F03DBB213700C490C4B1B78DAB2FB791343DBB243F01003DBB20B70012000F098F8054A054B1B78DBB223F01003DBB213700837BD46B9
:4035C00080BD00BF2051004080B582B000AF0346FB71144A134B1B78DBB223F06003DBB21370104A0F4B1B78DBB223F00F03DBB213700C490B4B1B78DAB2FB791343DBB2C7
:4036000043F01003DBB20B70012000F067F8054A044B1B78DBB223F01003DBB213700837BD4680BD20510040142816D902B4012114381049097811F0C001890904B40E4A1B
:40364000515C04BC00BF00BF00BF8841FDD500BF00BF02BC704700BF00BF70F10400FCD570470B050709EFF3108072B6704780F3108870470048004062360000AFF3008032
:4036800080B483B000AF0346FB7101BE0C37BD465DF8047B704700BF80B582B000AF786008E00C4B1B681846FFF7BEFF7B68A3F500437B607B68B3F5004FF2D8064B1B681E
:4036C0007A6802FB03F31846FFF7AEFF0837BD4680BD00BF2481FF1F1C81FF1F80B582B000AF0346FB80FB88044A127802FB03F31846FFF799FF0837BD4680BD2081FF1FE6
:4037000080B584B000AF03463960FB710F4B1B68FB60FB791F2B02D90020FFF7B1FFFB7903F01F0310339B00FA6813441B68BB60FB7903F01F0310339B00FA6813443A680C
:403740001A60BB6818461037BD4680BD08ED00E080B582B000AF03460A46FB711346BB71BB79072B02D90020FFF78AFFFB791F2B02D90020FFF784FFFB7903F01F0303F1C3
:40378000604303F56443BA795201D2B21A700837BD4680BD80B485B000AF0346FB710B4B1B78DBB223F01003FB730849FB791B01DBB203F01003DAB2FB7B1343DBB20B7009
:4037C0001437BD465DF8047B704700BFC051004080B582B000AF43F6BF5000F06BF843F6BF5000F083F8FFF73EFF0346FB710A4A094B1B78DBB243F01003DBB21370FB7902
:403800001846FFF734FF00F081F8012000F036F80837BD4680BD00BF9B64004080B400AF054A054B1B78DBB263F07F03DBB21370BD465DF8047B70477B64004080B500AFC4
:40384000054B1B78002B04D1FFF7C2FF024B01221A70FFF7E3FF80BDCA81FF1F80B400AF054A054B1B78DBB203F07F03DBB21370BD465DF8047B70477B64004080B483B0FB
:4038800000AF0346FB71044AFB7913700C37BD465DF8047B704700BF8B64004080B400AF034B1B78DBB21846BD465DF8047B70476B64004080B483B000AF0346FB80044A2C
:4038C000FB8813800C37BD465DF8047B704700BF5468004080B400AF034B1B889BB21846BD465DF8047B70479468004080B483B000AF0346FB80044AFB8813800C37BD4659
:403900005DF8047B704700BF1468004080B500AF01E0FFF7DFFFFFF7C1FF034603F00803002BF6D180BD00BF80B582B000AF786000F03CF8786800F009F8072000F018F8F3
:4039400000F028F80837BD4680BD00BF80B485B000AF7860054B1B68FB60FB684C337A681A601437BD465DF8047B704708ED00E080B483B000AF0346FB71054AFB795B0105
:40398000DBB213700C37BD465DF8047B704700BF03E400E080B400AF034B08221A60BD465DF8047B704700BF00E100E080B400AF034B08221A60BD465DF8047B704700BF9B
:4039C00080E100E080B485B000AF0346FB710B4B1B78DBB223F00803FB730849FB79DB00DBB203F00803DAB2FB7B1343DBB20B701437BD465DF8047B704700BF60510040A3
:403A000080B500AF254A254B1B78DBB203F00103DBB21370224A224B1B78DBB223F00303DBB213701D4A1D4B1B78DBB243F00403DBB213701B4A1B4B1B78DBB223F0300310
:403A4000DBB21370174A174B1B78DBB243F03003DBB21370134A134B1B78DBB223F00F03DBB213700F4A0F4B1B78DBB243F00F03DBB213700C4A0C4B1B78DBB243F00103A1
:403A8000DBB213704FF40D7000F054F84FF40D7000F062F8002000F03DF880BD004F0040024F00400B4F0040014F004080B400AF0D4A0D4B1B78DBB243F00103DBB213702B
:403AC0000A4A0A4B1B78DBB243F00103DBB21370074A074B1B78DBB243F00103DBB21370BD465DF8047B7047A3430040B3430040004F004080B500AF054B1B78002B04D16C
:403B0000FFF77EFF024B01221A70FFF7CFFF80BDCB81FF1F80B483B000AF0346FB71044AFB7913700C37BD465DF8047B704700BF034F004080B485B000AF0346FB80FB881C
:403B4000FB81044AFB8913801437BD465DF8047B704700BF044F004080B483B000AF0346FB80044AFB8813800C37BD465DF8047B704700BF064F004080B400AF054B1B7810
:403B8000DBB203F00103DBB21846BD465DF8047B704700BF3151004080B400AF054B1B78DBB203F00103DBB21846BD465DF8047B704700BF8345004080B582B000AF78600F
:403BC00000F03CF8786800F009F8072000F018F800F028F80837BD4680BD00BF80B485B000AF7860054B1B68FB60FB6840337A681A601437BD465DF8047B704708ED00E05D
:403C000080B483B000AF0346FB71054AFB795B01DBB213700C37BD465DF8047B704700BF00E400E080B400AF034B01221A60BD465DF8047B704700BF00E100E080B400AF77
:403C4000034B01221A60BD465DF8047B704700BF80E100E080B582B000AF786000F03CF8786800F009F8072000F018F800F028F80837BD4680BD00BF80B485B000AF786083
:403C8000054B1B68FB60FB6844337A681A601437BD465DF8047B704708ED00E080B483B000AF0346FB71054AFB795B01DBB213700C37BD465DF8047B704700BF01E400E0A3
:403CC00080B400AF034B02221A60BD465DF8047B704700BF00E100E080B400AF034B02221A60BD465DF8047B704700BF80E100E080B485B000AF0346FB710B4B1B78DBB247
:403D000023F00403FB730849FB799B00DBB203F00403DAB2FB7B1343DBB20B701437BD465DF8047B704700BF6051004080B485B000AF0346FB71094B1B78DBB203F07F0375
:403D4000FB730649FB79DB01DAB2FB7B1343DBB20B701437BD465DF8047B70470051004080B582B000AF786000F03CF8786800F009F8072000F018F800F028F80837BD4610
:403D800080BD00BF80B485B000AF7860054B1B68FB60FB6848337A681A601437BD465DF8047B704708ED00E080B483B000AF0346FB71054AFB795B01DBB213700C37BD46C1
:403DC0005DF8047B704700BF02E400E080B400AF034B04221A60BD465DF8047B704700BF00E100E080B400AF034B04221A60BD465DF8047B704700BF80E100E080B582B00E
:403E000000AF45F6BF4000F05BF845F6BF4000F073F8FFF728FC0346FB710A4A094B1B78DBB243F01003DBB21370FB791846FFF71EFC00F071F8012000F026F80837BD4628
:403E400080BD00BF9F64004080B400AF054A054B1B78DBB263F07F03DBB21370BD465DF8047B70477F64004080B500AF054B1B78002B04D1FFF7C2FF024B01221A70FFF75D
:403E8000E3FF80BDCC81FF1F80B483B000AF0346FB71044AFB7913700C37BD465DF8047B704700BF8F64004080B400AF034B1B78DBB21846BD465DF8047B70476F64004055
:403EC00080B483B000AF0346FB80044AFB8813800C37BD465DF8047B704700BF5C68004080B400AF034B1B889BB21846BD465DF8047B70479C68004080B483B000AF034640
:403F0000FB80044AFB8813800C37BD465DF8047B704700BF1C68004080B500AF01E0FFF7DFFFFFF7C1FF034603F00803002BF6D180BD00BF80B582B000AF0023FB71002302
:403F4000BB711C4B1B78DBB203F00303012B02D0022B04D012E0184B1B78BB710EE0164B1B78DBB203F07F02144913465B0013449B000B4408339B78BB7100BF104B1A6837
:403F8000BB7913441B78022B09D0032B02D0012B0AD00AE0FDF790FF0346FB7105E0FDF7FDFA0346FB7100E000BFFB7918460837BD4680BD00600040046000407090FF1FDE
:403FC0005890FF1F81F0004102E000BF83F0004330B54FEA41044FEA430594EA050F08BF90EA020F1FBF54EA000C55EA020C7FEA645C7FEA655C00F0E2804FEA5454D4EB30
:404000005555B8BF6D420CDD2C4480EA020281EA030382EA000083EA010180EA020281EA0303362D88BF30BD11F0004F4FEA01314FF4801C4CEA113102D0404261EB410133
:4040400013F0004F4FEA03334CEA133302D0524263EB430394EA050F00F0A780A4F10104D5F1200E0DDB02FA0EFC22FA05F2801841F1000103FA0EF2801843FA05F35941A2
:404080000EE0A5F120050EF1200E012A03FA0EFC28BF4CF0020C43FA05F3C01851EBE37101F0004507D54FF0000EDCF1000C7EEB00006EEB0101B1F5801F1BD3B1F5001F36
:4040C0000CD349085FEA30004FEA3C0C04F101044FEA445212F5800F80F09A80BCF1004F08BF5FEA500C50F1000041EB045141EA050130BD5FEA4C0C404141EB010111F410
:40410000801FA4F10104E9D191F0000F04BF01460020B1FA81F308BF2033A3F10B03B3F120020CDA0C3208DD02F1140CC2F10C0201FA0CF021FA02F10CE002F11402D8BFC3
:40414000C2F1200C01FA02F120FA0CFCDCBF41EA0C019040E41AA2BF01EB0451294330BD6FEA04041F3C1CDA0C340EDC04F11404C4F1200220FA04F001FA02F340EA0300C9
:4041800021FA04F345EA030130BDC4F10C04C4F1200220FA02F001FA04F340EA0300294630BD21FA04F0294630BD94F0000F83F4801306BF81F480110134013D4EE77FEAC6
:4041C000645C18BF7FEA655C29D094EA050F08BF90EA020F05D054EA000C04BF1946104630BD91EA030F1EBF0021002030BD5FEA545C05D14000494128BF41F0004130BD26
:4042000014F580043CBF01F5801130BD01F0004545F0FE4141F470014FF0000030BD7FEA645C1ABF194610467FEA655C1CBF0B46024650EA013406BF52EA033591EA030F7C
:4042400041F4002130BD00BF90F0000F04BF0021704730B54FF4806404F132044FF000054FF0000150E700BF90F0000F04BF0021704730B54FF4806404F1320410F00045BB
:4042800048BF40424FF000013EE700BF42004FEAE2014FEA31014FEA02701FBF12F07F4393F07F4F81F06051704792F0000F14BF93F07F4F704730B54FF4607401F0004573
:4042C00021F0004120E700BF50EA010208BF704730B54FF000050AE050EA010208BF704730B511F0004502D5404261EB41014FF4806404F132045FEA915C3FF4DCAE4FF087
:4043000003025FEADC0C18BF03325FEADC0C18BF033202EBDC02C2F1200300FA03FC20FA02F001FA03FE40EA0E0021FA02F11444C1E600BF70B54FF0FF0C4CF4E06C1CEA57
:4043400011541DBF1CEA135594EA0C0F95EA0C0F00F0DEF82C4481EA030621EA4C5123EA4C5350EA013518BF52EA033541F4801143F4801338D0A0FB02CE4FF00005E1FB7F
:4043800002E506F00042E0FB03E54FF00006E1FB03569CF0000F18BF4EF0010EA4F1FF04B6F5007F64F5407404D25FEA4E0E6D4146EB060642EAC62141EA55514FEAC520AB
:4043C00040EA5E504FEACE2EB4F1FD0C88BFBCF5E06F1ED8BEF1004F08BF5FEA500E50F1000041EB045170BD06F0004646EA010140EA020081EA0301B4EB5C04C2BFD4EB22
:404400000C0541EA045170BD41F480114FF0000E013C00F3AB8014F1360FDEBF002001F0004170BDC4F10004203C35DA0C341BDC04F11404C4F1200500FA05F320FA04F0A8
:4044400001FA05F240EA020001F0004221F0004110EBD37021FA04F642EB06015EEA430E08BF20EAD37070BDC4F10C04C4F1200500FA04F320FA05F001FA04F240EA02007C
:4044800001F0004110EBD37041F100015EEA430E08BF20EAD37070BDC4F1200500FA05F24EEA020E20FA04F301FA05F243EA020321FA04F001F0004121FA04F220EA0200D9
:4044C00000EBD3705EEA430E08BF20EAD37070BD94F0000F0FD101F00046400041EB010111F4801F08BF013CF7D041EA060195F0000F18BF704703F00046520043EB03031A
:4045000013F4801F08BF013DF7D043EA0603704794EA0C0F0CEA135518BF95EA0C0F0CD050EA410618BF52EA4306D1D181EA030101F000414FF0000070BD50EA410606BF06
:404540001046194652EA430619D094EA0C0F02D150EA013613D195EA0C0F05D152EA03361CBF104619460AD181EA030101F0004141F0FE4141F470014FF0000070BD41F0B3
:40458000FE4141F4780170BD70B54FF0FF0C4CF4E06C1CEA11541DBF1CEA135594EA0C0F95EA0C0F00F0A7F8A4EB050481EA030E52EA03354FEA013100F088804FEA033315
:4045C0004FF0805545EA131343EA12634FEA022245EA111545EA10654FEA00260EF000419D4208BF964244F1FD0404F5407402D25B084FEA3202B61A65EB03055B084FEAF3
:4046000032024FF480104FF4002CB6EB020E75EB030E22BFB61A754640EA0C005B084FEA3202B6EB020E75EB030E22BFB61A754640EA5C005B084FEA3202B6EB020E75EB7B
:40464000030E22BFB61A754640EA9C005B084FEA3202B6EB020E75EB030E22BFB61A754640EADC0055EA060E18D04FEA051545EA16754FEA06164FEAC30343EA52734FEACC
:40468000C2025FEA1C1CC0D111F4801F0BD141EA00014FF000004FF0004CB6E711F4801F04BF01430020B4F1FD0C88BFBCF5E06F3FF6AFAEB5EB030C04BFB6EB020C5FEA55
:4046C000500C50F1000041EB045170BD0EF0004E4EEA113114EB5C04C2BFD4EB0C0541EA045170BD41F480114FF0000E013C90E645EA060E8DE60CEA135594EA0C0F08BF12
:4047000095EA0C0F3FF43BAF94EA0C0F0AD150EA01347FF434AF95EA0C0F7FF425AF104619462CE795EA0C0F06D152EA03353FF4FDAE1046194622E750EA410618BF52EACB
:4047400043067FF4C5AE50EA41047FF40DAF52EA43057FF4EBAE12E74FEA410212F5001215D211D56FF47873B3EB625212D94FEAC12343F0004343EA505311F0004F23FA16
:4047800002F018BF404270474FF00000704750EA013005D111F0004008BF6FF0004070474FF00000704700BF014B1868704700BF8881FF1F0E4B70B51E460E4C0025E41AE5
:4047C000A410A54204D056F8253098470135F8E700F086FB084B094C1E46E41AA4100025A54204D056F8253098470135F8E770BDEC4E0000EC4E0000EC4E0000F44E0000F0
:4048000010B5431E0A44914204D011F8014B03F8014FF8E710BD03460244934202D003F8011BFAE77047000038B5124B05461C68A36BD3B9182000F07FF843F20E33A06361
:4048400003804AF6CD33438041F2342383804EF26D63C3804DF6EC630381052343810B23838101220023C0E90423A36B00221D615A6138BD8881FF1F194B10B51C68A36B48
:40488000D3B9182000F058F843F20E33A06303804AF6CD33438041F2342383804EF26D63C3804DF6EC630381052343810B23838101220023C0E90423A16B0A4C0B69486944
:4048C0005C43094A02FB0040A3FB02230132034443F10003C1E9042323F0004010BD00BF8881FF1F2DF451582D7F954C13B5084B044669461868002200F00CF8002803DB37
:4049000000981CB1206001E04FF0FF3002B010BD8881FF1F38B5074C0023054608461146236000F077F8431C02D1236803B12B6038BD00BF1891FF1F024B0146186800F0ED
:4049400003B800BF8881FF1F70B5CC1C24F0030408340C2C38BF0C24002C064603DA0C233360002070BD8C42F9D3204A136810461946A1B10A68121B0ED40B2A03D90A60ED
:404980008B188C501FE08B420BBF5A684A6802605A6018BF0B4616E00B464968E9E7144D2B681BB9304600F025F828603046214600F020F8421C0346D1D0C51C25F0030564
:4049C00085420AD11C6003F10B001A1D20F00700821A0AD05142995070BD3046E91A00F009F80130BBD02B46ECE770BDD481FF1FD081FF1F38B5064C002305460846236036
:404A0000FCF73CF8431C02D1236803B12B6038BD1891FF1F024B58221A604FF0FF3070471891FF1F00000000004F00400C0040510040200000000140001000140140000830
:404A400000400140000A004C01400002005001402000000002450040024F004002520040026400400101014001030140020501400107014001090140320A0140180B0140D4
:404A8000040C0140030D01403D0E0140220F0140021701400219014008400140094101400D42014005430140044701400748014003490140014C0140035001400251014014
:404AC00018037E0201200AC61C017C408B0D8F0DE208EC08E208EE01E204E204405449FF4AFF4BFF4F0150185A045D015F016040624064406540668068806A806C806E803A
:404B00009201AE01B001BE01C015C5ECC602C807C9FFCAFFCBFFCD83CE03CF01D018D280D401D604D804DA04DB04DD11DF01E040E240E440E540E680E880EA80EC80EE806D
:404B40000F8017401E804280474048014D044F81568057405D045E805F016780740177408740AA40C210C480D011D218D6D0D880B802BE01D804DF011A80AE04AF2140348A
:404B8000410249FF4AFF4BFF4F0150185A045F016040624064406540668068806A806C806E80800482488C078E109401960898029A489C1FAE27B018B207B420B640BE403D
:404BC000C034C106C5ECC602C807C9FFCAFFCBFFCD83CE03CF01D018D280D401D604D804DA04DB04DF05E040E240E440E540E680E880EA80EC80EE80044006800D080E086E
:404C00000F0217401C501D081E0A4010428043204508468049804A014D044E044F0156805D845F01678077407F208740C090C2E0C480D0C7D220D6D0D880DE40EA02EE02F2
:404C4000EA02EE023042368037083B208402CCF0CE10E2103310372097209C409F08A680AC40CC30EC1012805B02870897209B029C409F38A680AB02C410D640E210EE8004
:404C8000831097209C409F30E2200B440F808340C20E644066209C40AF30D880EA40EE402A209E20CA10AF4400030C020E0100FF012A0000008181000000000010000010B6
:404CC00010000000000000000000000000000000C00000000004000000000000007F7F0000000000010000010000000000000000000C0C00000000000D0A000030313233EB
:404D0000343536373839414243444546000000001201000202000008B40432F2010001048001000009024300020101C0320904000001020200020524001001042402020552
:404D40002406000105240100010705810308000A09040100020A0000030705820240000A0705030240000A00040309042C034300790070007200650073007300200053004A
:404D800065006D00690063006F006E0064007500630074006F0072003803430044004300200043006F006D006D0075006E00690063006100740069006F006E002000490003
:404DC0006E007400650072006600610063006500260343004400430020004400610074006100200049006E00740065007200660061006300650010035500530042005500DB
:404E0000410052005400000002030000320005010902A1010901A100050919012903150025019503750181029501750581010501093009311581257F750895028106C0C076
:404E40000000000000008103080002000100820240000A000100030240000A00020A000001000000244D000003000000444E00000000000000000000000000000000000072
:404E8000000000005C4E000001000000104D000001000000604E000001000000884E000012034D005300460054003100300030000100000028000000000104000100000055
:404EC0000000000000014359555342000000303030303100000000000000000043000000F8B500BFF8BC08BC9E4670474D000000650B0000F8B500BFF8BC08BC9E4670473C
:404F000029000000184F00000881FF1F88000000900F000000000000000000002091FF1F00C20100000008000090D00300FA0000400000000000007D00000000000000005F
:404F4000000000000000000000000000000000000000000000000000DC4E000000000000000000000000000000000000000000000000000000000000000000000000000007
:404F80000000000000000000000000000000000000000000000000002881FF1F0000000000000000000000000000000000000000000000000000000000000000000000002A
:404FC00000000000000000000000000000000000000000000000000000000000000000000000000000000000000000000000000000000000000000000000000000000000B1
:405000000000000000000000000000000000000000000000000000000000000000000000000000000000000000000000000000000000000000000000000000000000000070
:405040000000000000000000000000000000000000000000000000000000000000000000000000000000000000000000000000000000000000000000000000000000000030
:4050800000000000000000000000000000000000000000000000000000000000000000000000000000000000000000000000000000000000000000000000000000000000F0
:0200000480007A
:0200000490006A
:040000000800C0052F
:0200000490105A
:04000000BC90ACAF55
:0200000490303A
:020000003DB70A
:0200000490402A
:4000000000000000000000000000000000000000000000000000000000000000000000000000000000000000000000000000000000000000000000000000000000000000C0
:400040000000000000000000000000000000000000000000000000000000000000000000000000000000000000000000000000000000000000000000000000000000000080
:400080000000000000000000000000000000000000000000000000000000000000000000000000000000000000000000000000000000000000000000000000000000000040
:4000C0000000000000000000000000000000000000000000000000000000000000000000000000000000000000000000000000000000000000000000000000000000000000
:0200000490501A
:0C00000000012E12306900012E306E202D
:00000001FF