:400000000080002011000000950200009502000080B500AF024A034B1B68136000F03EF9BC760040FA46004010B5054C237833B9044B13B10448AFF300800123237010BDB2
:400040002881FF1F000000005C2C0000084B10B51BB108480849AFF300800848036803B910BD074B002BFBD0BDE81040184700BF000000005C2C00002C81FF1F0881FF1FF1
:400080000000000080B59CB000AF002387F86F30002387F86E3062B60020002100F026FB012002F03DFD00F0CFFC0346002B06D000F0BEFC0346002B01D000F075FE00F091
:4000C000B7FC0346002B00F08A8000F0ABFE0346002B55D000F0D6FE034687F8673097F867300D2B25D01B2B49D0082B2DD197F86E30002B1CD097F86E30013B87F86E30DD
:4001000097F86E3007F170021344002203F8702C00BF00F09FFE0346002BFAD0082000F053FE202000F050FE082000F04DFE27E026E0012387F86F3000BF00F08BFE034674
:40014000002BFAD000F056FE1AE097F86E3007F17002134497F8672003F8702C97F86E30013387F86E3000BF00F074FE0346002BFAD097F86730184600F026FE00E000BF9D
:4001800097F86F30002B27D097F86E30002B23D00023BB66002387F86F30002002F0C0FCFA2002F061FC012002F0BAFCFA2002F05BFC0023BB6609E03A46BB6E13441B78FC
:4001C000184600F00DF8BB6E0133BB6697F86E20BB6E9A42F0DC02E0002387F86F3062E780B59AB000AF0346FB7100237B660023FB650FE0FB7903F001027B6E9B0007F195
:4002000068010B4443F85C2C7B6E01337B66FB795B08FB71FB79002BECD17B6E013B3B662EE03B6E9B0007F16802134453F85C3C002B06D0FB6D002B0CBF01230023DBB2BF
:40024000FB65FB6D002B0CD0012002F069FCFA2002F00AFC002002F063FCFA2002F004FC0BE0002002F05CFCFA2002F0FDFB012002F056FCFA2002F0F7FB3B6E013B3B6666
:400280003B6E002BCDDA012002F04AFC6837BD4680BD00BF80B400AFFEE700BF80B586B000AF224B7B61224B3B61204B7B6135E03B691B68FB603B695B68BB603B699B68D2
:4002C0003B6000237B600CE0FB681A68BB681A60BB680433BB60FB680433FB607B6804337B607A683B689A42EED13B69DB683B6000237B6008E0BB6800221A60BB680433F7
:40030000BB607B6804337B607A683B689A42F2D13B6910333B617B69013B7B617B69002BC6D102F061FCFFF7ADFEFEE701000000242F000080B582B000AF174B174A1A60E8
:40034000174A174B1B6843F40073136000237B600FE07B68032B04D8124A7B6852F8233000E0114B11497A6841F822307B6801337B607B682F2BECD90D4B1B78DAB20D4B9E
:400380001A700D4B094A1A6000F014F90B4B00221A600837BD4680BD0CED00E00004FA0514ED00E000000000950200000080FF1FBC7600400481FF1F08ED00E00081FF1FA5
:4003C00080B582B000AF78603960786800213A6802F03BFC0837BD4680BD00BF80B584B000AFF860B9607A60F868B9687A6802F021FC1037BD4680BD80B584B000AFF860A0
:40040000B9607A60F868B9687A6802F013FC1037BD4680BD80B483B000AF0346FB71FEE780B487B000AF7860396000233B6100237B6127E07B699B007A6813441B68BB6088
:40044000BB68FB73BB6823F0FF03BB6014E03B695B003A6813441B781A46BB68134419463B695B003A6813445B780B703B6901333B61FB7B013BFB73FB7B002BE7D17B69C9
:4004800001337B617B690B2BD4D91C37BD465DF8047B704780B582B000AF294B06221A70284B52221A70284B284A1278D2B21A70274B40F618021A80264B41F251221A804D
:4004C0000023FB7019237B6014E0FB785B00DAB2214B1B78DBB203F00103DBB21343DBB203F00303FB704FF4F07002F085FA7B68013B7B607B68002B02D0FB78032BE4D16E
:400500007B68002B02D10320FFF784FF134B4FF480721A80114B07221A70114B00221A70104B48221A700D4B00221A700E4B00221A700E4B02221A700837BD4680BD00BF5D
:400540000043004000420040A14600400F010049224200402042004025420040044000400640004008400040094000400140004080B483B000AF0B4B1B78FB710A4AFB793A
:4005800003F00703DBB21370084AFB791B09DBB21370074B44221A700C37BD465DF8047B704700BFCF0100496E5800406F5800407658004080B582B000AF72B6384B00224B
:4005C0001A70FFF767FF374A364B1B78DBB243F00403DBB213700023FB7113E0FA7913465B0013445B00304A13443B603B681A683B689B889BB210461946FFF7E1FEFB79AC
:400600000133FB71FB79062BE8D928482849FFF707FF284A274B1B78DBB243F00203DBB21370254A244B1B78DBB243F00203DBB21370224A214B1B78DBB243F04003DBB24A
:4006400013701F4A1E4B1B78DBB243F01003DBB213701C481C490822FFF7CEFE1B481C490A22FFF7C9FE1B481B490822FFF7C4FE1A481B490822FFF7BFFE1A4A194B1B78A2
:40068000DBB243F00803DBB21370FFF771FF16480A490E22FFF7A2FE0837BD4680BD00BF00480040E8460040602C00008C2C0000BC2C00000350014013500140A0430040C7
:4006C000C243004002510040F82C0000F0510040002D0000125100400C2D000022510040142D000022430040B043004080B582B000AF03460A46FB711346BB71084B1B7822
:40070000002B04D100F00EF8054B01221A70FA79BB791046194600F0CBF80837BD4680BD4481FF1F80B582B000AF02F084F90346FB714F4A4E4B1B78DBB243F00103DBB205
:4007400013704C4A4B4B1B78DBB243F00103DBB21370494B01221A70484B02221A70484A474B1B78DBB203F07F03DBB21370002002F07AF9434A434B1B78DBB223F006033C
:40078000DBB21370404A404B1B78DBB223F02003DBB213703B4A3B4B1B78DBB243F00103DBB21370012002F05FF9282002F05CF9364A364B1B78DBB203F07F03DBB213709C
:4007C000324A324B1B78DBB223F04003DBB213702C4A2C4B1B78DBB243F00203DBB21370022002F041F9274A264B1B78DBB243F00403DBB21370264B00221A70254B0022DC
:400800001A70FB79184602F01AF91720224902F03DF91720072102F061F915201F4902F035F91520072102F059F918201C4902F02DF91820072102F051F90020194902F0BF
:4008400025F90020072102F049F90120164902F01DF90120072102F041F90220134902F015F90220072102F039F90837BD4680BDA5430040B54300409D6000400960004030
:40088000106000409443004012600040F85100408460004085600040ED150000E1150000AD0E0000DD140000311500008515000080B584B000AF03460A46FB711346BB71C7
:4008C0000023FB7306E0FB7B294A0121D154FB7B0133FB73FB7B012BF5D9264B4FF400021A60244B4FF080721A60224B01221A60204B02221A601F4B04221A601E4B0022D7
:400900001A70BB79002B02D0012B04D007E01B4B02221A7007E0194B03221A7003E0174B02221A7000BF164AFB791370154B00221A70154B00221A70144B00221A70144B7C
:4009400000221A70134B00221A70134B00221A70124B03221A70124B80221A70012002F04BF8104B04221A701037BD4680BD00BFEC81FF1F00E100E0E481FF1F0960004003
:40098000E581FF1F5781FF1F5881FF1F5681FF1FEA81FF1F5981FF1F5581FF1F28600040086000401260004080B483B000AF0023FB7106E0FB79144A0121D154FB790133EE
:4009C000FB71FB79012BF5D9104B00221A70104B00221A700F4B00221A700F4B00221A700E4B00221A700E4B00221A700D4B00221A700D4B03221A700C4B80221A700C3728
:400A0000BD465DF8047B7047EC81FF1FE481FF1F5781FF1F5881FF1F5681FF1FEA81FF1F5981FF1F5581FF1F286000400860004080B400AF034B1B78DBB21846BD465DF84C
:400A4000047B70475781FF1F80B483B000AF0023FB71094B1B78DBB2002B05D0064B1B78FB71054B00221A70FB7918460C37BD465DF8047B704700BF5681FF1F80B485B025
:400A800000AF0346FB710023FB81FB79002B20D0FB79082B1DD8FB79013BDBB21B017B737A7B0F4B13441B78DBB29BB203F00F03FB81FB891B0299B27A7B0A4B13441B780D
:400AC000DBB29BB20A4613439BB2FB81FB89023BFB81FB8918461437BD465DF8047B70470C6000400D60004090B484B000AF03463960FB711346BB80FB79002B69D0FB7907
:400B0000082B66D8FB79013BDBB21B017B737A7B324B1344BB60B988FA79314813465B0013449B000344DB889BB2C3F5007399420BD9FA792A4913465B0013449B000B448A
:400B4000DB889BB2C3F50073BB807A7B254B13441C46BB881B0A9BB2D9B2FA79204813465B0013449B000344DB78DBB20B43DBB223707A7B1C4B1344BA88D2B21A703B6845
:400B8000002B0FD00023FB8108E0FB893A6813441A78BB681A70FB890133FB81FA89BB889A42F2D3FA790E4913465B0013449B000B4400225A707A7B0C4B13441846FA792E
:400BC000074913465B0013449B000B445B79DBB203701037BD4690BC704700BF886000407481FF1F0C6000400D6000400E60004080B586B000AF03463960FB711346BB8092
:400C0000FB79002B30D0FB79082B2DD83B68002B2AD0FB79013BDBB21B017B757A7D164B13443B61FB791846FFF728FF0346FB81BA88FB899A4201D9FB89BB800023FB827E
:400C400009E0FB8A3A6813443A691278D2B21A70FB8A0133FB82FA8ABB889A42F1D3FB79184600F00BF801E00023BB80BB8818461837BD4680BD00BF8860004080B485B0B1
:400C800000AF0346FB71FB79002B1ED0FB79082B1BD8FB79013BDBB21B01FB73FA790D4913465B0013449B000B4400225A70FA7B094B13441846FA79064913465B001344ED
:400CC0009B000B445B79DBB203701437BD465DF8047B70477481FF1F0E60004080B582B000AF0023FB71294B1B78DBB2DBB25BB2002B11DA264B1B78DBB2212B00D00AE01C
:400D0000244B07221A80234B234A5A6000F04AFA0346FB7100BF34E01C4B1B78DBB2DBB25BB2002B2DDB1A4B1B78DBB2202B02D0222B13D025E0174B07221A80154B164A20
:400D40005A60164B1B78DBB243F00103DAB2134B1A7000F0A9FA0346FB7112E0104B1B78DBB29AB20F4B1A800C4B1B78DBB243F00203DAB2094B1A7000F036FB0346FB71A9
:400D800000BFFB7918460837BD4680BD00600040016000406481FF1F0C81FF1F5081FF1F026000404E81FF1F80B500AF044B00221A70044B1B78DBB21846FFF75FFF80BD79
:400DC0005081FF1F4C81FF1F80B584B000AF0346FB71FB79FB73064B1B78DAB207F10F03104619460122FFF77FFE1037BD4680BD4D81FF1F80B582B000AF084A3B1D1288D8
:400E00001A80074B1B78DAB23B1D104619460222FFF76AFE0837BD4680BD00BF1C2D00004D81FF1F80B400AF084B1B78DBB21946074A0B465B000B449B0013445B78DBB252
:400E40001846BD465DF8047B704700BF4C81FF1F7481FF1F80B400AF084B1B78DBB21946074A0B465B000B449B0013445B78DBB21846BD465DF8047B704700BF4D81FF1FDF
:400E80007481FF1F80B582B000AF074B1B78DAB2FB1D104619460122FFF7AAFEFB7918460837BD4680BD00BF4C81FF1F80B582B000AF374B1B78BB71BB7903F01003002B53
:400EC00063D00123FB71BB795BB2002B13DABB7903F00F03012B02D00023FB711DE000F061F82C4B1B78DBB2DBB25BB2002B14DA0023FB7111E0BB7903F04003002B02D099
:400F000000F094F809E0BB7903F02003002B02D000F0B2F801E00023FB71FB79002B34D01B4B1B78BB71BB795BB2002B2DDB1A4B1B78DAB2194B1B78DBB21343BB71184AD3
:400F4000BB791370164B1B78DBB2BA799A421CD1104B1B78FB710E4B1B78DBB223F07F03BB71BB79002B0AD1094B0A4A1278D2B21A70074B1B78DBB203F00F03FB71054BFC
:400F80001B78DBB2FA799A42E2D10837BD4680BD286000405481FF1F5A81FF1F7081FF1F2960004080B582B000AF1D4B1B78FB711B4AFB7913701A4B1B78FB71FB795BB246
:400FC000002B03DA174AFB79137025E0022000F04BFA154B1B78DBB203F06003202B08D0402B0BD0002B0ED100F0ECFC0346FB710CE001F0B1FD0346FB7107E001F0CEFC7D
:401000000346FB7102E00023FB7100BFFB79002B02D1044B03221A700837BD4680BD00BF286000405481FF1F0060004080B500AF104B1B78DBB2062B19D801A252F823F041
:401040006F1000006F1000005D1000006F100000631000006F1000006910000000F0FEF806E000F0B1F903E000F0DAF900E000BF80BD00BFE481FF1F80B500AF124B1B781D
:40108000DBB2062B1DD801A252F823F0C3100000C3100000A9100000C3100000AF100000C3100000B510000000F0DEF80AE000F02FF907E0032000F0D7F9044B03221A7064
:4010C00000E000BF80BD00BFE481FF1F5481FF1F80B483B000AF0023FB712B4B1B78DBB29AB22A4B1B889BB213449AB2274B1A8019E0FB7903F1804303F5C0431A46244B56
:401100005B681B78DBB21370214B5B680133204A5360FB790133FB711D4B1B889BB2013B9AB21B4B1A801A4B1B889BB2002B02D0FB79072BDDD9144B1B78DBB2082B02D0A3
:40114000FB79002B0FD0134B1B78DBB283F07F03DB43DAB20F4B1A700F4B0F221A700F4B02221A7005E00C4B02221A700B4B02221A70054AFB791370094AFB7913700C3712
:40118000BD465DF8047B70475581FF1FE281FF1F6481FF1F5A81FF1F5481FF1FE481FF1F7081FF1F80B582B000AF164B1B889BB2002B02D100F030F81EE0134B02221A7024
:4011C000124B00221A7000F06FF9114B1B78DBB21B029AB20F4B1B78DBB29BB213439BB2FB80084B1B889BB2FA889A4202D2054AFB881380FFF76CFF012318460837BD46C5
:4012000080BD00BF6481FF1FE481FF1F5A81FF1F076000400660004080B400AF0A4B02221A700A4B80221A70094B0F221A70094B00221A70084B00221A7001231846BD46EC
:401240005DF8047B704700BFE481FF1F5A81FF1F5481FF1F5581FF1F7081FF1F80B500AFFFF736FF80BD00BF80B500AF0A4B1B78DBB29AB2094B1B889BB213449AB2074BC9
:401280001A80074B00221A70012000F0EDF8054B03221A7080BD00BF5581FF1FE281FF1FE481FF1F5481FF1F80B582B000AF124B04221A70114B80221A7000F0F5F8104BD7
:4012C0001B78DBB21B029AB20E4B1B78DBB29BB213439BB2FB800C4B1B889BB2FA889A4202D2094AFB881380084B0B221A70012318460837BD4680BDE481FF1F5A81FF1F18
:4013000007600040066000406481FF1F5481FF1F80B483B000AF0023BB71254B1B78DBB203F00F03DBB2023BFB71FB799AB2214B1B889BB213449AB21E4B1A801BE01E4B14
:401340005A68BB7903F1804303F5C0431B78DBB21370194B5B680133174A5360BB790133BB71FB79013BFB71134B1B889BB2013B9AB2114B1A80104B1B889BB2002B02D0EF
:40138000FB79002BDBD10D4AFB7913700C4B1B78DBB283F07F03DB43DAB2094B1A70094B0B221A700C37BD465DF8047B704700BF29600040E281FF1F6481FF1F7081FF1FA9
:4013C0005A81FF1F5481FF1F80B500AF044B00221A70012000F048F8024B03221A7080BDE481FF1F5481FF1F80B400AF084B06221A70084B06221A70074B80221A70074B65
:4014000000221A7001231846BD465DF8047B7047E481FF1F5481FF1F5A81FF1F7081FF1F80B500AF0C4B1B78DBB2002B0AD00B4A094B1B78DBB263F07F03DBB21370064B13
:4014400000221A70064B00221A70012000F00CF8044B03221A7080BDEA81FF1F08600040E481FF1F5481FF1F80B483B000AF0346FB710B4B9B68002B0CD0094B9B68FA79D7
:401480001A70074B9B68074A128892B25A80044B00229A600C37BD465DF8047B704700BF6481FF1FE281FF1F80B400AF094B00221A80094B9B68002B07D0074B9B68002202
:4014C0001A70054B9B6800225A80BD465DF8047B704700BFE281FF1F6481FF1F80B400AF104B1B78104B1B7BDBB203F00303012B08D00D4BDB7BDBB283F07F03DB43DAB21C
:40150000094BDA73084B01225A73084A074B1B78DBB223F00103DBB21370BD465DF8047B704700BF0E6000407481FF1F0B60004080B400AF104B1B78104B1B7EDBB203F0DE
:401540000303012B08D00D4BDB7EDBB283F07F03DB43DAB2094BDA76084B01225A76084A074B1B78DBB223F00203DBB21370BD465DF8047B704700BF1E6000407481FF1F90
:401580000B60004080B400AF124B1B78124B93F82430DBB203F00303012B0AD00E4B93F82730DBB283F07F03DB43DAB20A4B83F82720094B012283F82520084A074B1B78F9
:4015C000DBB223F00403DBB21370BD465DF8047B704700BF2E6000407481FF1F0B60004080B400AFBD465DF8047B704780B500AFFFF7DAF980BD00BF80B582B000AF002308
:40160000FB716F4B1B78BB716E4B1B78DBB2DBB25BB2002B6DDA6C4B1B78DBB2013B052B65D801A252F823F087160000A1160000CD160000EF160000EF16000041160000C8
:40164000624B1B78DBB2212B0BD100F0CBF8604B1B889BB2002B15D0FFF7A4FD0346FB7146E05A4B1B78DBB2222B0BD100F0F8F8574B1B889BB2002B04D0FFF793FD034677
:40168000FB7135E034E000F033F9514B1B889BB2002B04D0FFF786FD0346FB7128E027E0BB79012B11D84B4B1B78DBB2002B0CD1474B01221A80BB79474A1344444A5360FE
:4016C000FFF770FD0346FB7112E011E0BB79012B0CD83F4B01221A80BB79404A13443C4A5360FFF75FFD0346FB7101E000E000BF61E0344B1B78DBB2DBB25BB2002B5ADBB5
:40170000314B1B78DBB20A2B11D00B2B3FD0092B00D050E000F0ECF82D4B1B889BB2002B04D0FFF7C1FD0346FB7144E043E0BB79012B2BD8274B1B78DBB2002B26D1BB7948
:40174000224A1278D1B2244AD154BB79224AD35CDAB2BB792249CB5CDBB29A4204D2BB791F4A0021D1540CE0BB791D4AD35CDBB2012B06D9BB79BA7917498A5CD1B2184A3A
:40178000D154FFF731FE0346FB7114E013E0BB79012B0FD80F4B1B78DBB2012B0AD8BB790C4A1278D1B20D4AD154FFF71DFE0346FB71FFE700BFFB7918460837BD4680BDA5
:4017C000046000400060004001600040036000406481FF1F02600040F481FF1FEC81FF1FF081FF1F80B584B000AF194B1B78DBB2013BDBB2184600F021FFF860154B1B78F1
:40180000FB72FB7A0233DB00FA681344FB60FB685B68FB60FB7A104AD35CDBB2DB00FA681344FB60FB685B68FB60FB682033FB60FB685B687B607B681B78DBB29AB2074B73
:401840001A80064A7B6853601037BD4680BD00BF5781FF1F046000406081FF1F6481FF1F80B584B000AF1E4B1B78DBB2013BDBB2184600F0E3FEF8601A4B1B78FB72FB7A3B
:401880000233DB00FA681344FB60FB685B68FB60FB7A154AD35CDBB2DB00FA681344FB60FB685B68FB60FB681833FB60FB685B687B607B6801331B78DBB21B029AB27B68F6
:4018C0001B78DBB29BB213439BB29AB2074B1A807B680233054A53601037BD4680BD00BF5781FF1F046000406081FF1F6481FF1F80B584B000AF2D4B00221A802C4B1B784E
:40190000DBB2013BDBB2184600F098FEF860294B1B78FB72284B1B78BB72BB7A0233DB00FA681344FB60FB685B68FB60BB7A012B38D8BB7A214AD35CDBB2DB00FA68134433
:40194000FB60FB685B68FB60FB7A002B2AD0FB7A032B27D8FB7A03F10053013BDB00FA681344FB60164B1B78FB72FB681B78FA7A9A4217D8FB685B687B60FA7A13465B00A9
:4019800013449B001A467B6813447B607B685B68064A53607B681A88044B1A807B689B68024A93601037BD4680BD00BF6481FF1F5781FF1F03600040046000406081FF1FFF
:4019C0000260004080B586B000AF0023FB7500233B619D4B00221A809C4B1B78DBB2DBB25BB2002B80F20681994B1B78DBB20A2B00F2FE8001A252F823F000BF451B0000A8
:401A0000F11B0000F11B0000F11B0000F11B0000F11B0000291A0000F11B0000BB1B0000F11B0000D11B00008A4B1B78DBB2012B0ED100F02DFEB860BB685B68824A5360B5
:401A4000814B12221A80FFF7ADFB0346FB7578E0804B1B78DBB2022B24D17F4B1B78DBB2184600F0EBFDB860BB68002B69D0BB685B68754A5360744B5B6803331B78DBB221
:401A80001B029AB2704B5B6802331B78DBB29BB213439BB29AB26C4B1A80FFF783FB0346FB75A6E06B4B1B78DBB2032B44D10023FB736A4B3B6109E03B691B78FB71FB79AF
:401AC0003A6913443B61FB7B0133FB73624B1B78DBB2FA7B9A4204D23B691B78DBB2002BEAD15D4B1B78DBB2EE2B01D15C4B3B61594B1B78DBB2002B0BD0574B1B78DAB219
:401B0000584B1B7C9A4204D1574800F0ADF9564B3B613B691B78DBB2002B12D03B691B78DBB29AB2484B1A80474A3B695360FFF739FB0346FB755CE001F00EF80346FB7583
:401B400057E056E0414B1B78DBB203F00303002B1FD0022B00D02FE03B4B02221A80434B1B78DBB203F07F02414913465B0013449B000B449B78DAB23E4B1A703D4B0022EC
:401B80005A70314B3B4A5A60FFF70CFB0346FB7512E02D4B02221A80374B1B78DAB2354B1A70344B00225A70274B324A5A60FFF7F9FA0346FB7500BF1BE0234B01221A807D
:401BC000214B2E4A5A60FFF7EDFA0346FB7510E01D4B01221A80254B1B78DBB21A46284B1344194A5360FFF7DDFA0346FB7500E000BF20E1164B1B78DBB2013B0A2B00F2C2
:401C0000198101A252F823F0191D0000351E0000A71D0000351E0000351C0000351E0000351E0000351E0000891C0000351E0000DF1C0000084B1B78DAB2124B1A70FFF7DE
:401C4000D3FB0346FB75F6E06481FF1F006000400160004003600040026000408C2D0000C42E0000342D0000F881FF1F046000407481FF1F4881FF1F5981FF1F5781FF1F4F
:401C80006081FF1FEA81FF1F6D4B1B78BB71BB79002B06D0BB79013BDBB2184600F0CEFCB860BB79002B02D0BB68002B02D1BB79002B13D1634B1B78DBB2BA799A4208D079
:401CC000604ABB791370604B01221A70012000F0D3F9FFF789FB0346FB75ACE0ABE000F021FE0346002B16D0584B1B787B71584A7B791370544B01221A7000F061FB7B79D4
:401D00007A7954498A5CD1B2534AD154FFF76CFB0346FB758FE08EE0504B1B78DBB203F00303012B22D0012B0DD3022B00D039E0434B1B78DBB2002B04D100F051FD0346CC
:401D4000FB752FE02EE03E4B1B78DBB2012B0CD1434B1B78DBB223F00203DAB2404B1A70FFF742FB0346FB751CE01BE0374B1B78DBB2012B15D8324B1B78DBB2DB43DBB2D7
:401D8000324A1278D2B211461046364A125CD2B21340DAB2334B5A54FFF726FB0346FB75FFE700BF47E02D4B1B78DBB203F00303012B22D0012B0DD3022B00D039E0204B97
:401DC0001B78DBB2002B04D100F09AFC0346FB752FE02EE01A4B1B78DBB2012B0CD1204B1B78DBB243F00203DAB21D4B1A70FFF7FBFA0346FB751CE01BE0144B1B78DBB27E
:401E0000012B15D80E4B1B78DBB2DB43DBB20F4A1278D2B211461046124A125CD2B21340DAB2104B5A54FFF7DFFA0346FB75FFE700BF00E000BFFB7D18461837BD4680BDEA
:401E4000026000405781FF1F5681FF1F046000405881FF1F6081FF1FE081FF1F006000405981FF1FE881FF1F90B488B000AF78600023BB771F4B07F10C040FCB84E80F007E
:401E80007B68002B32D07B6822221A707B68013303221A700223FB7725E0BB7F03F1924303F580731B787B77BB7F0133BB77FB7F7A6813447A7F1209D2B207F120010A443A
:401EC00012F8142C1A70FB7F02337A6813447A7F02F00F0207F120010A4412F8142C1A70FB7F0433FB77FB7F212BD6D92037BD4690BC7047202D000080B483B000AF012373
:401F0000FB710023BB7197E0BB7903F1804303F5C1430C221A70FA794E4913465B0013449B000B445B79DBB2002B18D0FA79494913465B0013449B000B441B79DBB2DBB2B5
:401F40005BB2002B05DABA79434B13440C221A700AE0BA79404B134408221A7004E0BA793D4B134480221A70BA793C4B13441846FA79384913465B0013449B000B44083312
:401F80001B889BB21B0A9BB2DBB20370BA79344B13441846FA792F4913465B0013449B000B4408331B889BB2DBB20370BA792D4B13441846FA79274913465B0013449B0064
:401FC0000B44DB889BB2DBB20370BA79264B13441846FA791F4913465B0013449B000B44DB889BB21B0A9BB2DBB20370BA791F4B13441846FA79174913465B0013449B00CC
:402000000B44DB889BB2DBB20370BA79184B13441846FA790F4913465B0013449B000B44DB889BB21B0A9BB2DBB20370FB790133FB71BB791033BB71BB795BB2002BBFF69C
:4020400063AF0C4BFF221A700C37BD465DF8047B704700BF7481FF1F0E6000400C6000400D600040866000408760004084600040856000400A60004080B588B000AF0346FD
:40208000FB7100237B830023FB7743E0FA7FA24913465B0013449B000B4400221A70FA7F9D4913465B0013449B000B4400229A70FA7F994913465B0013449B000B440022E4
:4020C0005A70FA7F944913465B0013449B000B440022DA70FA7F904913465B0013449B000B4400225A71FA7F8B4913465B0013449B000B44083300221A80FA7F8649134651
:402100005B0013449B000B44083300229A70FB7F0133FB77FB7F082BB8D9FB79002B10D000237B770AE07B7F7C4A0021D1547B7F7B4A0021D1547B7F01337B777B7F012B6F
:40214000F1D9784B1B78DBB2002B00F03281754B1B78DBB2013BDBB2184600F06FFA38613B695B68FB60FB6807331B7803F04003002B08D06C4B1B78DBB243F00103DAB226
:40218000694B1A7007E0684B1B78DBB223F00103DAB2654B1A703B6908333B613B691B78FB7701237B77ADE03B695B687B610023BB779FE07A7F7B699B7803F07F039A422B
:4021C00040F092807A7F544913465B0013449B000B4408331B889AB27B699B889A420BD27A7F7B6998884C4913465B0013449B000B44083302461A807B691B781A46474B1B
:402200009B5CDAB27B695B789A426DD17B69DB7803F00303FB727B699B78DBB25BB2002B26DA7A7F3C4913465B0013449B000B4401225A707A7FFB7A012B01D1072000E01E
:402240000D20354913465B0013449B000B4402465A717B699B790A2B03D07B699B79022B2CD1FB7A032B29D0304A7B7F137025E07A7F294913465B0013449B000B4400226F
:402280005A707A7FFB7A012B01D1052000E00920214913465B0013449B000B4402465A717B699B790A2B03D07B699B79022B05D1FB7A032B02D01E4A7B7F13707A7F7B6916
:4022C0009878154913465B0013449B000B4402461A717A7F7B69D8780F4913465B0013449B000B4402461A707B6908337B61BB7F0133BB77BA7FFB7F9A42FFF45BAF7B7F3B
:4023000001337B777B7F082B7FF64EAF3B695B687B6100237B7722E07481FF1F6081FF1FE081FF1F5781FF1F5981FF1F4D81FF1F4C81FF1F7B699B7803F07F027B69187849
:402340001D4913465B0013449B000B44083302469A707B6908337B617B7F01337B777A7FFB7F9A42E6D300F0A5F90246134B1A600123FB7718E0FA7F0F4913465B0013443A
:402380009B000B447A8BDA80FA7F0B4913465B0013449B000B4408331B889AB27B8B13447B83FB7F0133FB77FB7F082BE3D9FFF7A3FD2037BD4680BD7481FF1F5C81FF1FC9
:4023C00080B584B000AF914B1B78DBB2002B00F01A818E4B1B78DBB2013BDBB2184600F02DF978607B6808337B607B681B78FB707B685B68BB600023FB73FFE0BB681B7844
:402400001A46834B9B5CDAB2BB681B781946814B5B5CDBB29A4200F0EB80BB681B781A467B4B9B5CDAB2BB685B789A4240F0E080BB681A78784B1B78DBB29A4240F0D880D2
:40244000BB689B7803F07F03BB70BB78013BDBB21B017B70BB68DB7803F003033B70BB689B78DBB25BB2002B18DABA786B4913465B0013449B000B4401225A70BA783B78CF
:40248000012B01D1072000E00D20644913465B0013449B000B4402465A7117E0BA785F4913465B0013449B000B4400225A70BA783B78012B01D1052000E009205749134679
:4024C0005B0013449B000B4402465A717A78544B134401221A70BA78BB6898884F4913465B0013449B000B44083302461A80BA78BB689878494913465B0013449B000B448D
:4025000002461A71BA78BB68D878444913465B0013449B000B4402461A70BA783F4913465B0013449B000B440022DA707A783D4B13441846BA78394913465B0013449B002B
:402540000B4408331B889BB21B0A9BB2DBB203707A78354B13441846BA78304913465B0013449B000B4408331B889BB2DBB203707A782E4B13441846BA78284913465B0006
:4025800013449B000B44DB889BB2DBB203707A78274B13441846BA78204913465B0013449B000B44DB889BB21B0A9BB2DBB203707A78204B13441846BA78184913465B0006
:4025C00013449B000B44DB889BB2DBB203707A78194B13441846BA78104913465B0013449B000B44DB889BB21B0A9BB2DBB20370BB680833BB60FB7B0133FB73FA7BFB78C4
:402600009A42FFF4FBAE1037BD4680BD5781FF1F6081FF1FE081FF1F046000407481FF1F0E6000400C6000400D6000408660004087600040846000408560004080B485B06A
:4026400000AF0346FB71104B1B78DBB20F4ADB0013445B68FB60FB680833FB60FB681B78FA799A4202D30023FB6005E0FB79DB00FA6813445B68FB60FB6818461437BD4627
:402680005DF8047B704700BFE581FF1FBC2E000080B400AF054B1B78DBB2054ADB0013445B681846BD465DF8047B7047E581FF1FBC2E000080B584B000AF104B1B78DBB2DE
:4026C000013BDBB21846FFF7B9FFB860BB68002B0DD0BB685B681B79FB71FB790233DB00BA681344BB60BB685B68FB6001E00023FB60FB6818461037BD4680BD5781FF1FE6
:4027000080B582B000AF0023FB71324B1B78DBB203F07F03BB71BB79013BDBB21B017B71BB79002B51D0BB79082B4ED8BA79B97929480B465B000B449B0003449B78DBB251
:4027400043F00103D8B2244913465B0013449B000B4402469A70BA791F4913465B0013449B000B440022DA70BA79B9791A480B465B000B449B0003445B78DBB243F00203AC
:40278000D8B2154913465B0013449B000B4402465A70BA79104913465B0013449B000B441B79DBB2DBB25BB2002B05DA7A790B4B13448D221A7004E07A79084B13448922DF
:4027C0001A70FEF711FE0346FB71FB7918460837BD4680BD046000407481FF1F0E60004080B582B000AF0023FB714A4B1B78DBB203F07F03BB71BB79013BDBB21B017B71E0
:40280000BB79002B00F08180BB79082B7DD8BA79B97941480B465B000B449B0003449B78DBB223F00103D8B23B4913465B0013449B000B4402469A70BA79374913465B004E
:4028400013449B000B440022DA707A79334B134419467A79314B13441B78DBB203F07F03DBB20B70BA79B9792B480B465B000B449B0003445B78DBB223F00203D8B22649FB
:4028800013465B0013449B000B4402465A70BA79214913465B0013449B000B441B79DBB2DBB25BB2002B16DABA791B4913465B0013449B000B445B78DBB2012B05D17A79C8
:4028C000174B13440C221A701BE07A79144B13440D221A7015E0BA790F4913465B0013449B000B445B78DBB2012B05D17A790C4B134408221A7004E07A79094B1344092231
:402900001A70FEF771FD0346FB71FB7918460837BD4680BD046000407481FF1F0C6000400E60004080B584B000AF0123FB73164B1B78BB73154B1B78DBB2013BDBB2184620
:40294000FFF77CFEB860BB685B681B79FB71BA7BFB799A4202D2BB7B012B02D90023FB730CE0BB7BBA7B0A498A5CD1B2094AD154BB7B094A1278D1B2054AD154FB7B184659
:402980001037BD4680BD00BF046000405781FF1F6081FF1FE081FF1F0260004080B582B000AF0023FB710F4B1B78DBB2DBB25BB2002B12DA0C4B1B78DBB2012B00D00CE0E8
:4029C0000A4B0B4A5A600A4B1B789AB2074B1A80FEF7E8FB0346FB7100BFFB7918460837BD4680BD00600040016000406481FF1FD82E000000000000142816D902B4012169
:402A000014381049097811F0C001890904B40E4A515C04BC00BF00BF00BF8841FDD500BF00BF02BC704700BF00BF70F10400FCD570470B050709EFF3108072B6704780F385
:402A40001088704700480040322A0000AFF3008080B483B000AF0346FB7101BE0C37BD465DF8047B704700BF80B582B000AF0346FB80FB88044A127802FB03F31846FFF76B
:402A8000BBFF0837BD4680BD1C81FF1F80B584B000AF03463960FB710F4B1B68FB60FB791F2B02D90020FFF7D3FFFB7903F01F0310339B00FA6813441B68BB60FB7903F0DE
:402AC0001F0310339B00FA6813443A681A60BB6818461037BD4680BD08ED00E080B582B000AF03460A46FB711346BB71BB79072B02D90020FFF7ACFFFB791F2B02D90020C9
:402B0000FFF7A6FFFB7903F01F0303F1604303F56443BA795201D2B21A700837BD4680BD80B485B000AF0346FB710A4B1B78DBB223F00103FB730749FB7903F00103DAB21A
:402B4000FB7B1343DBB20B701437BD465DF8047B704700BF0051004080B582B000AF0023FB710023BB711C4B1B78DBB203F00303012B02D0022B04D012E0184B1B78BB71D1
:402B80000EE0164B1B78DBB203F07F02144913465B0013449B000B4408339B78BB7100BF104B1A68BB7913441B78022B09D0032B02D0012B0AD00AE0FEF71EFD0346FB71F1
:402BC00005E0FEF78BF80346FB7100E000BFFB7918460837BD4680BD00600040046000407481FF1F5C81FF1F0E4B70B51E460E4C0025E41AA410A54204D056F82530984731
:402C00000135F8E700F07CF9084B094C1E46E41AA4100025A54204D056F8253098470135F8E770BD0C2F00000C2F00000C2F0000142F000010B5431E0A44914204D011F8A0
:402C4000014B03F8014FF8E710BD03460244934202D003F8011BFAE77047000000000000305100404000C0510040100000000140001000140140000800400140000A004C45
:402C800001400002005001402000000001450040015200400217014002190140034001400341014003420140034301400447014004480140024C0140015101407E027C40C4
:402CC000EA02EE0AEA02EE0A33813640CC709F01A640A7809F01A640A7809F01A640A78008080B040F40C20EAE40AF81EA40EE50AC08AF44002A0000000101000000000008
:402D00000000000000000000C00000000004000000000000007F7F00000000000D0A000030313233343536373839414243444546000000001201000202000008B40432F21D
:402D4000010001048001000009024300020101C032090400000102020002052400100104240202052406000105240100010705810308000A09040100020A00000307058266
:402D80000240000A0705030240000A00040309042C0343007900700072006500730073002000530065006D00690063006F006E0064007500630074006F0072003803430043
:402DC00044004300200043006F006D006D0075006E00690063006100740069006F006E00200049006E007400650072006600610063006500260343004400430020004400CE
:402E0000610074006100200049006E00740065007200660061006300650010035500530042005500410052005400000002030000320005010902A1010901A10005091901B5
:402E40002903150025019503750181029501750581010501093009311581257F750895028106C0C00000000000008103080002000100820240000A000100030240000A004D
:402E8000020A000001000000482D000003000000682E00000000000000000000000000000000000000000000802E000001000000342D000001000000842E00000100000033
:402EC000AC2E000012034D00530046005400310030003000010000002800000000010400010000000000000000014359555342000000303030303100000000000000000071
:402F0000F8B500BFF8BC08BC9E4670474D00000035030000F8B500BFF8BC08BC9E46704729000000382F00000881FF1F20000000F8000000000000000000000000C20100FC
:402F4000000008000090D00300FA0000400000000000007D00000000000000000000000000000000000000000000000000000000000000000000000000000000000000002F
:402F80000000000000000000000000000000000000000000000000000000000000000000000000000000000000000000000000000000000000000000000000000000000011
:402FC00000000000000000000000000000000000000000000000000000000000000000000000000000000000000000000000000000000000000000000000000000000000D1
:403000000000000000000000000000000000000000000000000000000000000000000000000000000000000000000000000000000000000000000000000000000000000090
:403040000000000000000000000000000000000000000000000000000000000000000000000000000000000000000000000000000000000000000000000000000000000050
:0200000480007A
:0200000490006A
:040000000800C0052F
:0200000490105A
:04000000BC90ACAF55
:0200000490303A
:020000009E3828
:0200000490402A
:4000000000000000000000000000000000000000000000000000000000000000000000000000000000000000000000000000000000000000000000000000000000000000C0
:400040000000000000000000000000000000000000000000000000000000000000000000000000000000000000000000000000000000000000000000000000000000000080
:400080000000000000000000000000000000000000000000000000000000000000000000000000000000000000000000000000000000000000000000000000000000000040
:4000C0000000000000000000000000000000000000000000000000000000000000000000000000000000000000000000000000000000000000000000000000000000000000
:0200000490501A
:0C00000000012E12306900012E23CEA159
:00000001FF