:400000000080002011000000950500009505000080B500AF024A034B1B68136000F0BEFABC760040FA46004010B5054C237833B9044B13B10448AFF300800123237010BD2B
:400040002881FF1F000000006C370000084B10B51BB108480849AFF300800848036803B910BD074B002BFBD0BDE81040184700BF000000006C3700002C81FF1F0881FF1FBB
:400080000000000080B500AF074B01221A7003F01BF90346012B03D1034B01221A7002E0014B02221A7080BDE08DFF1F80B500AF034B00221A7003F0C5F803F015F980BDA2
:4000C000E08DFF1F80B500AF034B1B7802F06EFF024B01221A7080BD6B640040E18DFF1F80B59AB000AF002387F86730534B00221A70534B00221A7062B603F049FA012015
:4001000002F0F0FE4F4803F04DF94F4803F0FCF803F098F80020002100F0AAFC4B4802F0ABFF00F00BFA00F051FE0346002B06D000F040FE0346002B01D000F0F7FF00F041
:4001400039FE0346002B78D001F02EF80346002B73D001F059F8034687F8663097F866300D2B25D01B2B67D0082B4BD197F86730002B1CD097F86730013B87F8673097F8BC
:40018000673007F168021344002203F8682C00BF01F022F80346002BFAD0082000F0D6FF202000F0D3FF082000F0D0FF45E044E000F050F83A4697F867301046194600F094
:4001C0006DF800BF01F008F80346002BFAD000F0D3FF03E000F060F900F0B0F9184B1B7883F00103DBB2002BF4D1154B00221A70012002F077FE164B00221A60002387F808
:4002000067301AE097F8673007F16802134497F8662003F8682C97F86730013387F8673000BF00F0D9FF0346002BFAD097F86630184600F08BFF00E000BF72E7E18DFF1FF4
:400240005C81FF1F85000000AD000000C50000004481FF1F80B400AF0E4B00221A600D4B1B680D4A002142F823100A4B1B680133084A1360074B1B68074A012142F823108B
:40028000044B1B680133034A1360BD465DF8047B704700BF4481FF1F6081FF1F80B584B000AF78600B46FB700023FB600023FB6009E07A68FB6813441B78184600F00AF839
:4002C000FB680133FB60FA78FB689A42F1D81037BD4680BD80B49BB000AF0346FB716C4B1B68013B6B4A52F8233087F8673097F86730012B16D1664B1B68664A012142F8D1
:400300002310634B1B680133614A1360604B1B68604A002142F823105D4B1B6801335C4A136015E05A4B1B685A4A002142F82310574B1B680133564A1360554B1B68554AAC
:40034000012142F82310524B1B680133504A13604F4B1B68013B4F4A52F8233087F8673000233B660FE0FB7903F001023B6E9B0007F168010B4443F85C2CFB795B08FB71D1
:400380003B6E01333B66FB79002BECD10623FB6576E0FB6D9B0007F16802134453F85C3C012B31D197F86730012B16D1384B1B68384A012142F82310354B1B680133344AB2
:4003C0001360334B1B68334A002142F82310304B1B6801332E4A136047E02D4B1B682D4A002142F823102A4B1B680133284A1360274B1B68274A012142F82310244B1B6842
:400400000133234A136030E097F86730012B16D11F4B1B681F4A002142F823101C4B1B6801331B4A13601A4B1B681A4A012142F82310174B1B680133154A136015E0144B6B
:400440001B68144A012142F82310114B1B6801330F4A13600E4B1B680E4A002142F823100B4B1B6801330A4A1360094B1B68013B084A52F8233087F86730FB6D013BFB657B
:40048000FB6D002B85DA6C37BD465DF8047B70474481FF1F6081FF1F80B582B000AF00237B6031E0204B1B78012B15D01E4B1B78022B10D103F0B6F80346DB09DBB21A463E
:4004C0004FF4487303FB02F3184602F08DFC012002F008FD1DE01CE0144A7B6852F82330DBB2184602F0FEFC02F050FD00BF104B1B7883F00103DBB2002BF8D10C4B00220F
:400500001A707B6801337B600A4B1B687A689A42C8DB084B1B687A689A4202D1064B01221A700837BD4680BDE08DFF1F6081FF1FE18DFF1F4481FF1F5C81FF1F80B500AF4A
:40054000134B1B78012B0ED0022B16D0002B00D01DE0012002F0DEFD002002F071FF002002F08CFF13E0012002F06AFF002002F0D1FD002002F082FF09E0012002F07EFF0D
:40058000002002F0C7FD002002F05AFF00BF80BDE08DFF1F80B400AFFEE700BF80B586B000AF224B7B61224B3B61204B7B6135E03B691B68FB603B695B68BB603B699B6879
:4005C0003B6000237B600CE0FB681A68BB681A60BB680433BB60FB680433FB607B6804337B607A683B689A42EED13B69DB683B6000237B6008E0BB6800221A60BB680433F4
:40060000BB607B6804337B607A683B689A42F2D13B6910333B617B69013B7B617B69002BC6D103F069F8FFF75BFDFEE701000000843B000080B582B000AF174B174A1A60C7
:40064000174A174B1B6843F40073136000237B600FE07B68032B04D8124A7B6852F8233000E0114B11497A6841F822307B6801337B607B682F2BECD90D4B1B78DAB20D4B9B
:400680001A700D4B094A1A6000F03CF90B4B00221A600837BD4680BD0CED00E00004FA0514ED00E000000000950500000080FF1FBC7600400481FF1F08ED00E00081FF1F77
:4006C00080B582B000AF78603960786800213A6803F043F80837BD4680BD00BF80B584B000AFF860B9607A60F868B9687A6803F029F81037BD4680BD80B584B000AFF86093
:40070000B9607A60F868B9687A6803F01BF81037BD4680BD80B483B000AF0346FB71FEE780B487B000AF7860396000233B6100237B6127E07B699B007A6813441B68BB6080
:40074000BB68FB73BB6823F0FF03BB6014E03B695B003A6813441B781A46BB68134419463B695B003A6813445B780B703B6901333B61FB7B013BFB73FB7B002BE7D17B69C6
:4007800001337B617B69172BD4D91C37BD465DF8047B704780B582B000AF364B00221A80354B58221A70354B01221A80344B19221A70344B17221A80334B19221A70334B0A
:4007C00006221A70324B52221A70324B324A1278D2B21A70314B40F618021A80304B41F251221A800023FB7019237B6014E0FB785B00DAB22B4B1B78DBB203F00103DBB20D
:400800001343DBB203F00303FB704FF4F07002F0B3FA7B68013B7B607B68002B02D0FB78032BE4D17B68002B02D10320FFF772FF1D4B4FF480721A801B4B07221A701B4BDE
:4008400000221A701A4B48221A70174B00221A70184B00221A70184B02221A70174A174B1B78DBB243F00703DBB213700837BD4680BD00BF804000408240004084400040D1
:4008800086400040884000408A4000400043004000420040A14600400F0100492242004020420040254200400440004006400040084000400940004001400040A2430040ED
:4008C00080B483B000AF0B4B1B78FB710A4AFB7903F00703DBB21370084AFB791B09DBB21370074B44221A700C37BD465DF8047B704700BFCF0100496E5800406F580040C6
:400900007658004080B582B000AF72B63F4B00221A70FFF73FFF3E4A3D4B1B78DBB243F00403DBB213700023FB7113E0FA7913465B0013445B00374A13443B603B681A6894
:400940003B689B889BB210461946FFF7B9FEFB790133FB71FB79062BE8D92F482F49FFF7DFFE2F4A2E4B1B78DBB243F00203DBB213702C4A2B4B1B78DBB243F00203DBB29B
:400980001370294A284B1B78DBB243F04003DBB21370264A254B1B78DBB243F01003DBB21370234823490822FFF7A6FE224823490A22FFF7A1FE224822490A22FFF79CFE0F
:4009C000214822490822FFF797FE214821490822FFF792FE204821490A22FFF78DFE204820490822FFF788FE1F4A1F4B1B78DBB243F00803DBB21370FFF762FF1B480A49A7
:400A00000E22FFF76BFE0837BD4680BD00480040E8460040703700009C370000FC3700000350014013500140A0430040C24300400251004038390000C05100404039000097
:400A4000F05100404C390000125100405839000022510040603900003051004068390000625100407439000022430040B043004080B582B000AF03460A46FB711346BB7176
:400A8000084B1B78002B04D100F00EF8054B01221A70FA79BB791046194600F0CBF80837BD4680BD4C81FF1F80B582B000AF02F082F90346FB714F4A4E4B1B78DBB243F027
:400AC0000103DBB213704C4A4B4B1B78DBB243F00103DBB21370494B01221A70484B02221A70484A474B1B78DBB203F07F03DBB21370002002F09AF9434A434B1B78DBB224
:400B000023F00603DBB21370404A404B1B78DBB223F02003DBB213703B4A3B4B1B78DBB243F00103DBB21370012002F07FF9282002F07CF9364A364B1B78DBB203F07F03CC
:400B4000DBB21370324A324B1B78DBB223F04003DBB213702C4A2C4B1B78DBB243F00203DBB21370022002F061F9274A264B1B78DBB243F00403DBB21370264B00221A70BA
:400B8000254B00221A70FB79184602F018F91720224902F05DF91720072102F081F915201F4902F055F91520072102F079F918201C4902F04DF91820072102F071F903203D
:400BC000194902F045F90320072102F069F90420164902F03DF90420072102F061F90520134902F035F90520072102F059F90837BD4680BDA5430040B54300409D60004033
:400C000009600040106000409443004012600040F8510040846000408560004071190000651900003112000061180000B51800000919000080B584B000AF03460A46FB71F0
:400C40001346BB710023FB7306E0FB7B294A0121D154FB7B0133FB73FB7B012BF5D9264B4FF400021A60244B4FF080721A60224B08221A60204B10221A601F4B20221A6028
:400C80001E4B00221A70BB79002B02D0012B04D007E01B4B02221A7007E0194B03221A7003E0174B02221A7000BF164AFB791370154B00221A70154B00221A70144B002257
:400CC0001A70144B00221A70134B00221A70134B00221A70124B03221A70124B80221A70012002F049F8104B04221A701037BD4680BD00BF808EFF1F00E100E0788EFF1F00
:400D000009600040798EFF1FEB8DFF1FEC8DFF1FEA8DFF1F7E8EFF1FED8DFF1FE98DFF1F28600040086000401260004080B483B000AF0023FB7106E0FB79144A0121D15407
:400D4000FB790133FB71FB79012BF5D9104B00221A70104B00221A700F4B00221A700F4B00221A700E4B00221A700E4B00221A700D4B00221A700D4B03221A700C4B8022C9
:400D80001A700C37BD465DF8047B7047808EFF1F788EFF1FEB8DFF1FEC8DFF1FEA8DFF1F7E8EFF1FED8DFF1FE98DFF1F286000400860004080B400AF034B1B78DBB2184651
:400DC000BD465DF8047B7047EB8DFF1F80B483B000AF0023FB71094B1B78DBB2002B05D0064B1B78FB71054B00221A70FB7918460C37BD465DF8047B704700BFEA8DFF1F73
:400E000080B485B000AF0346FB710023FB81FB79002B20D0FB79082B1DD8FB79013BDBB21B017B737A7B0F4B13441B78DBB29BB203F00F03FB81FB891B0299B27A7B0A4B0A
:400E400013441B78DBB29BB20A4613439BB2FB81FB89023BFB81FB8918461437BD465DF8047B70470C6000400D60004090B484B000AF03463960FB711346BB80FB79002B46
:400E800069D0FB79082B66D8FB79013BDBB21B017B737A7B324B1344BB60B988FA79314813465B0013449B000344DB889BB2C3F5007399420BD9FA792A4913465B00134444
:400EC0009B000B44DB889BB2C3F50073BB807A7B254B13441C46BB881B0A9BB2D9B2FA79204813465B0013449B000344DB78DBB20B43DBB223707A7B1C4B1344BA88D2B205
:400F00001A703B68002B0FD00023FB8108E0FB893A6813441A78BB681A70FB890133FB81FA89BB889A42F2D3FA790E4913465B0013449B000B4400225A707A7B0C4B13444E
:400F40001846FA79074913465B0013449B000B445B79DBB203701037BD4690BC704700BF88600040088EFF1F0C6000400D6000400E60004080B586B000AF03463960FB7130
:400F80001346BB80FB79002B30D0FB79082B2DD83B68002B2AD0FB79013BDBB21B017B757A7D164B13443B61FB791846FFF728FF0346FB81BA88FB899A4201D9FB89BB8007
:400FC0000023FB8209E0FB8A3A6813443A691278D2B21A70FB8A0133FB82FA8ABB889A42F1D3FB79184600F00BF801E00023BB80BB8818461837BD4680BD00BF88600040F7
:4010000080B485B000AF0346FB71FB79002B1ED0FB79082B1BD8FB79013BDBB21B01FB73FA790D4913465B0013449B000B4400225A70FA7B094B13441846FA7906491346B2
:401040005B0013449B000B445B79DBB203701437BD465DF8047B7047088EFF1F0E60004080B582B000AF0023FB71294B1B78DBB2DBB25BB2002B11DA264B1B78DBB2212BFF
:4010800000D00AE0244B07221A80234B234A5A6000F04AFA0346FB7100BF34E01C4B1B78DBB2DBB25BB2002B2DDB1A4B1B78DBB2202B02D0222B13D025E0174B07221A80A3
:4010C000154B164A5A60164B1B78DBB243F00103DAB2134B1A7000F0A9FA0346FB7112E0104B1B78DBB29AB20F4B1A800C4B1B78DBB243F00203DAB2094B1A7000F036FB1B
:401100000346FB7100BFFB7918460837BD4680BD0060004001600040F88DFF1F0C81FF1FE68DFF1F02600040E48DFF1F80B500AF044B00221A70044B1B78DBB21846FFF7F7
:401140005FFF80BDE68DFF1FE28DFF1F80B584B000AF0346FB71FB79FB73064B1B78DAB207F10F03104619460122FFF77FFE1037BD4680BDE38DFF1F80B582B000AF084AC5
:401180003B1D12881A80074B1B78DAB23B1D104619460222FFF76AFE0837BD4680BD00BF7C390000E38DFF1F80B400AF084B1B78DBB21946074A0B465B000B449B0013442F
:4011C0005B78DBB21846BD465DF8047B704700BFE28DFF1F088EFF1F80B400AF084B1B78DBB21946074A0B465B000B449B0013445B78DBB21846BD465DF8047B704700BFA5
:40120000E38DFF1F088EFF1F80B582B000AF074B1B78DAB2FB1D104619460122FFF7AAFEFB7918460837BD4680BD00BFE28DFF1F80B582B000AF374B1B78BB71BB7903F03C
:401240001003002B63D00123FB71BB795BB2002B13DABB7903F00F03012B02D00023FB711DE000F061F82C4B1B78DBB2DBB25BB2002B14DA0023FB7111E0BB7903F04003D4
:40128000002B02D000F094F809E0BB7903F02003002B02D000F0B2F801E00023FB71FB79002B34D01B4B1B78BB71BB795BB2002B2DDB1A4B1B78DAB2194B1B78DBB21343E1
:4012C000BB71184ABB791370164B1B78DBB2BA799A421CD1104B1B78FB710E4B1B78DBB223F07F03BB71BB79002B0AD1094B0A4A1278D2B21A70074B1B78DBB203F00F03A7
:40130000FB71054B1B78DBB2FA799A42E2D10837BD4680BD28600040E88DFF1FEE8DFF1F048EFF1F2960004080B582B000AF1D4B1B78FB711B4AFB7913701A4B1B78FB71A6
:40134000FB795BB2002B03DA174AFB79137025E0022000F04BFA154B1B78DBB203F06003202B08D0402B0BD0002B0ED100F0ECFC0346FB710CE002F077F90346FB7107E070
:4013800001F0CEFC0346FB7102E00023FB7100BFFB79002B02D1044B03221A700837BD4680BD00BF28600040E88DFF1F0060004080B500AF104B1B78DBB2062B19D801A2C0
:4013C00052F823F0F3130000F3130000E1130000F3130000E7130000F3130000ED13000000F0FEF806E000F0B1F903E000F0DAF900E000BF80BD00BF788EFF1F80B500AFDB
:40140000124B1B78DBB2062B1DD801A252F823F047140000471400002D1400004714000033140000471400003914000000F0DEF80AE000F02FF907E0032000F0D7F9044BE7
:4014400003221A7000E000BF80BD00BF788EFF1FE88DFF1F80B483B000AF0023FB712B4B1B78DBB29AB22A4B1B889BB213449AB2274B1A8019E0FB7903F1804303F5C043B1
:401480001A46244B5B681B78DBB21370214B5B680133204A5360FB790133FB711D4B1B889BB2013B9AB21B4B1A801A4B1B889BB2002B02D0FB79072BDDD9144B1B78DBB256
:4014C000082B02D0FB79002B0FD0134B1B78DBB283F07F03DB43DAB20F4B1A700F4B0F221A700F4B02221A7005E00C4B02221A700B4B02221A70054AFB791370094AFB7950
:4015000013700C37BD465DF8047B7047E98DFF1F768EFF1FF88DFF1FEE8DFF1FE88DFF1F788EFF1F048EFF1F80B582B000AF164B1B889BB2002B02D100F030F81EE0134B25
:4015400002221A70124B00221A7000F06FF9114B1B78DBB21B029AB20F4B1B78DBB29BB213439BB2FB80084B1B889BB2FA889A4202D2054AFB881380FFF76CFF01231846D5
:401580000837BD4680BD00BFF88DFF1F788EFF1FEE8DFF1F076000400660004080B400AF0A4B02221A700A4B80221A70094B0F221A70094B00221A70084B00221A700123A7
:4015C0001846BD465DF8047B704700BF788EFF1FEE8DFF1FE88DFF1FE98DFF1F048EFF1F80B500AFFFF736FF80BD00BF80B500AF0A4B1B78DBB29AB2094B1B889BB2134461
:401600009AB2074B1A80074B00221A70012000F0EDF8054B03221A7080BD00BFE98DFF1F768EFF1F788EFF1FE88DFF1F80B582B000AF124B04221A70114B80221A7000F07B
:40164000F5F8104B1B78DBB21B029AB20E4B1B78DBB29BB213439BB2FB800C4B1B889BB2FA889A4202D2094AFB881380084B0B221A70012318460837BD4680BD788EFF1FA4
:40168000EE8DFF1F0760004006600040F88DFF1FE88DFF1F80B483B000AF0023BB71254B1B78DBB203F00F03DBB2023BFB71FB799AB2214B1B889BB213449AB21E4B1A801C
:4016C0001BE01E4B5A68BB7903F1804303F5C0431B78DBB21370194B5B680133174A5360BB790133BB71FB79013BFB71134B1B889BB2013B9AB2114B1A80104B1B889BB205
:40170000002B02D0FB79002BDBD10D4AFB7913700C4B1B78DBB283F07F03DB43DAB2094B1A70094B0B221A700C37BD465DF8047B704700BF29600040768EFF1FF88DFF1FF6
:40174000048EFF1FEE8DFF1FE88DFF1F80B500AF044B00221A70012000F048F8024B03221A7080BD788EFF1FE88DFF1F80B400AF084B06221A70084B06221A70074B80228C
:401780001A70074B00221A7001231846BD465DF8047B7047788EFF1FE88DFF1FEE8DFF1F048EFF1F80B500AF0C4B1B78DBB2002B0AD00B4A094B1B78DBB263F07F03DBB206
:4017C0001370064B00221A70064B00221A70012000F00CF8044B03221A7080BD7E8EFF1F08600040788EFF1FE88DFF1F80B483B000AF0346FB710B4B9B68002B0CD0094B14
:401800009B68FA791A70074B9B68074A128892B25A80044B00229A600C37BD465DF8047B704700BFF88DFF1F768EFF1F80B400AF094B00221A80094B9B68002B07D0074BEC
:401840009B6800221A70054B9B6800225A80BD465DF8047B704700BF768EFF1FF88DFF1F80B400AF104B1B78104B1B7BDBB203F00303012B08D00D4BDB7BDBB283F07F03DC
:40188000DB43DAB2094BDA73084B01225A73084A074B1B78DBB223F00103DBB21370BD465DF8047B704700BF0E600040088EFF1F0B60004080B400AF104B1B78104B1B7E90
:4018C000DBB203F00303012B08D00D4BDB7EDBB283F07F03DB43DAB2094BDA76084B01225A76084A074B1B78DBB223F00203DBB21370BD465DF8047B704700BF1E600040A0
:40190000088EFF1F0B60004080B400AF124B1B78124B93F82430DBB203F00303012B0AD00E4B93F82730DBB283F07F03DB43DAB20A4B83F82720094B012283F82520084AA6
:40194000074B1B78DBB223F00403DBB21370BD465DF8047B704700BF2E600040088EFF1F0B60004080B400AFBD465DF8047B704780B500AFFFF7DAF980BD00BF80B582B0D0
:4019800000AF0023FB716F4B1B78BB716E4B1B78DBB2DBB25BB2002B6DDA6C4B1B78DBB2013B052B65D801A252F823F00B1A0000251A0000511A0000731A0000731A000022
:4019C000C5190000624B1B78DBB2212B0BD100F0CBF8604B1B889BB2002B15D0FFF7A4FD0346FB7146E05A4B1B78DBB2222B0BD100F0F8F8574B1B889BB2002B04D0FFF7EF
:401A000093FD0346FB7135E034E000F033F9514B1B889BB2002B04D0FFF786FD0346FB7128E027E0BB79012B11D84B4B1B78DBB2002B0CD1474B01221A80BB79474A1344E2
:401A4000444A5360FFF770FD0346FB7112E011E0BB79012B0CD83F4B01221A80BB79404A13443C4A5360FFF75FFD0346FB7101E000E000BF61E0344B1B78DBB2DBB25BB250
:401A8000002B5ADB314B1B78DBB20A2B11D00B2B3FD0092B00D050E000F0ECF82D4B1B889BB2002B04D0FFF7C1FD0346FB7144E043E0BB79012B2BD8274B1B78DBB2002B90
:401AC00026D1BB79224A1278D1B2244AD154BB79224AD35CDAB2BB792249CB5CDBB29A4204D2BB791F4A0021D1540CE0BB791D4AD35CDBB2012B06D9BB79BA7917498A5C71
:401B0000D1B2184AD154FFF731FE0346FB7114E013E0BB79012B0FD80F4B1B78DBB2012B0AD8BB790C4A1278D1B20D4AD154FFF71DFE0346FB71FFE700BFFB79184608377C
:401B4000BD4680BD04600040006000400160004003600040F88DFF1F02600040888EFF1F808EFF1F848EFF1F80B584B000AF194B1B78DBB2013BDBB2184600F021FFF8609D
:401B8000154B1B78FB72FB7A0233DB00FA681344FB60FB685B68FB60FB7A104AD35CDBB2DB00FA681344FB60FB685B68FB60FB682033FB60FB685B687B607B681B78DBB29B
:401BC0009AB2074B1A80064A7B6853601037BD4680BD00BFEB8DFF1F04600040F48DFF1FF88DFF1F80B584B000AF1E4B1B78DBB2013BDBB2184600F0E3FEF8601A4B1B781C
:401C0000FB72FB7A0233DB00FA681344FB60FB685B68FB60FB7A154AD35CDBB2DB00FA681344FB60FB685B68FB60FB681833FB60FB685B687B607B6801331B78DBB21B02BF
:401C40009AB27B681B78DBB29BB213439BB29AB2074B1A807B680233054A53601037BD4680BD00BFEB8DFF1F04600040F48DFF1FF88DFF1F80B584B000AF2D4B00221A80C5
:401C80002C4B1B78DBB2013BDBB2184600F098FEF860294B1B78FB72284B1B78BB72BB7A0233DB00FA681344FB60FB685B68FB60BB7A012B38D8BB7A214AD35CDBB2DB005F
:401CC000FA681344FB60FB685B68FB60FB7A002B2AD0FB7A032B27D8FB7A03F10053013BDB00FA681344FB60164B1B78FB72FB681B78FA7A9A4217D8FB685B687B60FA7A21
:401D000013465B0013449B001A467B6813447B607B685B68064A53607B681A88044B1A807B689B68024A93601037BD4680BD00BFF88DFF1FEB8DFF1F036000400460004086
:401D4000F48DFF1F0260004080B586B000AF0023FB7500233B619D4B00221A809C4B1B78DBB2DBB25BB2002B80F20681994B1B78DBB20A2B00F2FE8001A252F823F000BFE5
:401D8000C91E0000751F0000751F0000751F0000751F0000751F0000AD1D0000751F00003F1F0000751F0000551F00008A4B1B78DBB2012B0ED100F02DFEB860BB685B687B
:401DC000824A5360814B12221A80FFF7ADFB0346FB7578E0804B1B78DBB2022B24D17F4B1B78DBB2184600F0EBFDB860BB68002B69D0BB685B68754A5360744B5B6803333F
:401E00001B78DBB21B029AB2704B5B6802331B78DBB29BB213439BB29AB26C4B1A80FFF783FB0346FB75A6E06B4B1B78DBB2032B44D10023FB736A4B3B6109E03B691B78EB
:401E4000FB71FB793A6913443B61FB7B0133FB73624B1B78DBB2FA7B9A4204D23B691B78DBB2002BEAD15D4B1B78DBB2EE2B01D15C4B3B61594B1B78DBB2002B0BD0574BD4
:401E80001B78DAB2584B1B7C9A4204D1574800F0ADF9564B3B613B691B78DBB2002B12D03B691B78DBB29AB2484B1A80474A3B695360FFF739FB0346FB755CE001F0D4FBD1
:401EC0000346FB7557E056E0414B1B78DBB203F00303002B1FD0022B00D02FE03B4B02221A80434B1B78DBB203F07F02414913465B0013449B000B449B78DAB23E4B1A705A
:401F00003D4B00225A70314B3B4A5A60FFF70CFB0346FB7512E02D4B02221A80374B1B78DAB2354B1A70344B00225A70274B324A5A60FFF7F9FA0346FB7500BF1BE0234B0C
:401F400001221A80214B2E4A5A60FFF7EDFA0346FB7510E01D4B01221A80254B1B78DBB21A46284B1344194A5360FFF7DDFA0346FB7500E000BF20E1164B1B78DBB2013BA8
:401F80000A2B00F2198101A252F823F09D200000B92100002B210000B9210000B91F0000B9210000B9210000B92100000D200000B921000063200000084B1B78DAB2124BE4
:401FC0001A70FFF7D3FB0346FB75F6E0F88DFF1F00600040016000400360004002600040EC390000243B0000943900008C8EFF1F04600040088EFF1F5081FF1FED8DFF1F73
:40200000EB8DFF1FF48DFF1F7E8EFF1F6D4B1B78BB71BB79002B06D0BB79013BDBB2184600F0CEFCB860BB79002B02D0BB68002B02D1BB79002B13D1634B1B78DBB2BA79D2
:402040009A4208D0604ABB791370604B01221A70012000F0D3F9FFF789FB0346FB75ACE0ABE000F021FE0346002B16D0584B1B787B71584A7B791370544B01221A7000F0EC
:4020800061FB7B797A7954498A5CD1B2534AD154FFF76CFB0346FB758FE08EE0504B1B78DBB203F00303012B22D0012B0DD3022B00D039E0434B1B78DBB2002B04D100F090
:4020C00051FD0346FB752FE02EE03E4B1B78DBB2012B0CD1434B1B78DBB223F00203DAB2404B1A70FFF742FB0346FB751CE01BE0374B1B78DBB2012B15D8324B1B78DBB268
:40210000DB43DBB2324A1278D2B211461046364A125CD2B21340DAB2334B5A54FFF726FB0346FB75FFE700BF47E02D4B1B78DBB203F00303012B22D0012B0DD3022B00D0EC
:4021400039E0204B1B78DBB2002B04D100F09AFC0346FB752FE02EE01A4B1B78DBB2012B0CD1204B1B78DBB243F00203DAB21D4B1A70FFF7FBFA0346FB751CE01BE0144B96
:402180001B78DBB2012B15D80E4B1B78DBB2DB43DBB20F4A1278D2B211461046124A125CD2B21340DAB2104B5A54FFF7DFFA0346FB75FFE700BF00E000BFFB7D1846183787
:4021C000BD4680BD02600040EB8DFF1FEA8DFF1F04600040EC8DFF1FF48DFF1F748EFF1F00600040ED8DFF1F7C8EFF1F90B488B000AF78600023BB771F4B07F10C040FCBD4
:4022000084E80F007B68002B32D07B6822221A707B68013303221A700223FB7725E0BB7F03F1924303F580731B787B77BB7F0133BB77FB7F7A6813447A7F1209D2B207F1AA
:4022400020010A4412F8142C1A70FB7F02337A6813447A7F02F00F0207F120010A4412F8142C1A70FB7F0433FB77FB7F212BD6D92037BD4690BC70478039000080B483B0E7
:4022800000AF0123FB710023BB7197E0BB7903F1804303F5C1430C221A70FA794E4913465B0013449B000B445B79DBB2002B18D0FA79494913465B0013449B000B441B7979
:4022C000DBB2DBB25BB2002B05DABA79434B13440C221A700AE0BA79404B134408221A7004E0BA793D4B134480221A70BA793C4B13441846FA79384913465B0013449B00FF
:402300000B4408331B889BB21B0A9BB2DBB20370BA79344B13441846FA792F4913465B0013449B000B4408331B889BB2DBB20370BA792D4B13441846FA79274913465B0048
:4023400013449B000B44DB889BB2DBB20370BA79264B13441846FA791F4913465B0013449B000B44DB889BB21B0A9BB2DBB20370BA791F4B13441846FA79174913465B0048
:4023800013449B000B44DB889BB2DBB20370BA79184B13441846FA790F4913465B0013449B000B44DB889BB21B0A9BB2DBB20370FB790133FB71BB791033BB71BB795BB207
:4023C000002BBFF663AF0C4BFF221A700C37BD465DF8047B704700BF088EFF1F0E6000400C6000400D600040866000408760004084600040856000400A60004080B588B0F1
:4024000000AF0346FB7100237B830023FB7743E0FA7FA24913465B0013449B000B4400221A70FA7F9D4913465B0013449B000B4400229A70FA7F994913465B0013449B00D9
:402440000B4400225A70FA7F944913465B0013449B000B440022DA70FA7F904913465B0013449B000B4400225A71FA7F8B4913465B0013449B000B44083300221A80FA7F84
:40248000864913465B0013449B000B44083300229A70FB7F0133FB77FB7F082BB8D9FB79002B10D000237B770AE07B7F7C4A0021D1547B7F7B4A0021D1547B7F01337B77EA
:4024C0007B7F012BF1D9784B1B78DBB2002B00F03281754B1B78DBB2013BDBB2184600F06FFA38613B695B68FB60FB6807331B7803F04003002B08D06C4B1B78DBB243F00D
:402500000103DAB2694B1A7007E0684B1B78DBB223F00103DAB2654B1A703B6908333B613B691B78FB7701237B77ADE03B695B687B610023BB779FE07A7F7B699B7803F075
:402540007F039A4240F092807A7F544913465B0013449B000B4408331B889AB27B699B889A420BD27A7F7B6998884C4913465B0013449B000B44083302461A807B691B782B
:402580001A46474B9B5CDAB27B695B789A426DD17B69DB7803F00303FB727B699B78DBB25BB2002B26DA7A7F3C4913465B0013449B000B4401225A707A7FFB7A012B01D1B0
:4025C000072000E00D20354913465B0013449B000B4402465A717B699B790A2B03D07B699B79022B2CD1FB7A032B29D0304A7B7F137025E07A7F294913465B0013449B0056
:402600000B4400225A707A7FFB7A012B01D1052000E00920214913465B0013449B000B4402465A717B699B790A2B03D07B699B79022B05D1FB7A032B02D01E4A7B7F1370FE
:402640007A7F7B699878154913465B0013449B000B4402461A717A7F7B69D8780F4913465B0013449B000B4402461A707B6908337B61BB7F0133BB77BA7FFB7F9A42FFF4DE
:402680005BAF7B7F01337B777B7F082B7FF64EAF3B695B687B6100237B7722E0088EFF1FF48DFF1F748EFF1FEB8DFF1FED8DFF1FE38DFF1FE28DFF1F7B699B7803F07F02D0
:4026C0007B6918781D4913465B0013449B000B44083302469A707B6908337B617B7F01337B777A7FFB7F9A42E6D300F0A5F90246134B1A600123FB7718E0FA7F0F491346F5
:402700005B0013449B000B447A8BDA80FA7F0B4913465B0013449B000B4408331B889AB27B8B13447B83FB7F0133FB77FB7F082BE3D9FFF7A3FD2037BD4680BD088EFF1FED
:40274000F08DFF1F80B584B000AF914B1B78DBB2002B00F01A818E4B1B78DBB2013BDBB2184600F02DF978607B6808337B607B681B78FB707B685B68BB600023FB73FFE0DB
:40278000BB681B781A46834B9B5CDAB2BB681B781946814B5B5CDBB29A4200F0EB80BB681B781A467B4B9B5CDAB2BB685B789A4240F0E080BB681A78784B1B78DBB29A4221
:4027C00040F0D880BB689B7803F07F03BB70BB78013BDBB21B017B70BB68DB7803F003033B70BB689B78DBB25BB2002B18DABA786B4913465B0013449B000B4401225A70A9
:40280000BA783B78012B01D1072000E00D20644913465B0013449B000B4402465A7117E0BA785F4913465B0013449B000B4400225A70BA783B78012B01D1052000E0092009
:40284000574913465B0013449B000B4402465A717A78544B134401221A70BA78BB6898884F4913465B0013449B000B44083302461A80BA78BB689878494913465B001344FA
:402880009B000B4402461A71BA78BB68D878444913465B0013449B000B4402461A70BA783F4913465B0013449B000B440022DA707A783D4B13441846BA78394913465B00B0
:4028C00013449B000B4408331B889BB21B0A9BB2DBB203707A78354B13441846BA78304913465B0013449B000B4408331B889BB2DBB203707A782E4B13441846BA78284945
:4029000013465B0013449B000B44DB889BB2DBB203707A78274B13441846BA78204913465B0013449B000B44DB889BB21B0A9BB2DBB203707A78204B13441846BA78184982
:4029400013465B0013449B000B44DB889BB2DBB203707A78194B13441846BA78104913465B0013449B000B44DB889BB21B0A9BB2DBB20370BB680833BB60FB7B0133FB7374
:40298000FA7BFB789A42FFF4FBAE1037BD4680BDEB8DFF1FF48DFF1F748EFF1F04600040088EFF1F0E6000400C6000400D60004086600040876000408460004085600040E6
:4029C00080B485B000AF0346FB71104B1B78DBB20F4ADB0013445B68FB60FB680833FB60FB681B78FA799A4202D30023FB6005E0FB79DB00FA6813445B68FB60FB68184689
:402A00001437BD465DF8047B704700BF798EFF1F1C3B000080B400AF054B1B78DBB2054ADB0013445B681846BD465DF8047B7047798EFF1F1C3B000080B584B000AF104B10
:402A40001B78DBB2013BDBB21846FFF7B9FFB860BB68002B0DD0BB685B681B79FB71FB790233DB00BA681344BB60BB685B68FB6001E00023FB60FB6818461037BD4680BD38
:402A8000EB8DFF1F80B582B000AF0023FB71324B1B78DBB203F07F03BB71BB79013BDBB21B017B71BB79002B51D0BB79082B4ED8BA79B97929480B465B000B449B000344D8
:402AC0009B78DBB243F00103D8B2244913465B0013449B000B4402469A70BA791F4913465B0013449B000B440022DA70BA79B9791A480B465B000B449B0003445B78DBB2C1
:402B000043F00203D8B2154913465B0013449B000B4402465A70BA79104913465B0013449B000B441B79DBB2DBB25BB2002B05DA7A790B4B13448D221A7004E07A79084B25
:402B4000134489221A70FEF711FE0346FB71FB7918460837BD4680BD04600040088EFF1F0E60004080B582B000AF0023FB714A4B1B78DBB203F07F03BB71BB79013BDBB2C1
:402B80001B017B71BB79002B00F08180BB79082B7DD8BA79B97941480B465B000B449B0003449B78DBB223F00103D8B23B4913465B0013449B000B4402469A70BA79374977
:402BC00013465B0013449B000B440022DA707A79334B134419467A79314B13441B78DBB203F07F03DBB20B70BA79B9792B480B465B000B449B0003445B78DBB223F00203BD
:402C0000D8B2264913465B0013449B000B4402465A70BA79214913465B0013449B000B441B79DBB2DBB25BB2002B16DABA791B4913465B0013449B000B445B78DBB2012B14
:402C400005D17A79174B13440C221A701BE07A79144B13440D221A7015E0BA790F4913465B0013449B000B445B78DBB2012B05D17A790C4B134408221A7004E07A79094B66
:402C8000134409221A70FEF771FD0346FB71FB7918460837BD4680BD04600040088EFF1F0C6000400E60004080B584B000AF0123FB73164B1B78BB73154B1B78DBB2013B65
:402CC000DBB21846FFF77CFEB860BB685B681B79FB71BA7BFB799A4202D2BB7B012B02D90023FB730CE0BB7BBA7B0A498A5CD1B2094AD154BB7B094A1278D1B2054AD154BF
:402D0000FB7B18461037BD4680BD00BF04600040EB8DFF1FF48DFF1F748EFF1F0260004080B582B000AF0023FB710F4B1B78DBB2DBB25BB2002B12DA0C4B1B78DBB2012B6B
:402D400000D00CE00A4B0B4A5A600A4B1B789AB2074B1A80FEF7E8FB0346FB7100BFFB7918460837BD4680BD0060004001600040F88DFF1F383B0000142816D902B401211C
:402D800014381049097811F0C001890904B40E4A515C04BC00BF00BF00BF8841FDD500BF00BF02BC704700BF00BF70F10400FCD570470B050709EFF3108072B6704780F302
:402DC0001088704700480040B22D0000AFF3008080B483B000AF0346FB7101BE0C37BD465DF8047B704700BF80B582B000AF786008E00C4B1B681846FFF7BEFF7B68A3F5A5
:402E000000437B607B68B3F5004FF2D8064B1B687A6802FB03F31846FFF7AEFF0837BD4680BD00BF2081FF1F1881FF1F80B582B000AF0346FB80FB88044A127802FB03F34A
:402E40001846FFF799FF0837BD4680BD1C81FF1F80B584B000AF03463960FB710F4B1B68FB60FB791F2B02D90020FFF7B1FFFB7903F01F0310339B00FA6813441B68BB6071
:402E8000FB7903F01F0310339B00FA6813443A681A60BB6818461037BD4680BD08ED00E080B582B000AF03460A46FB711346BB71BB79072B02D90020FFF78AFFFB791F2BBB
:402EC00002D90020FFF784FFFB7903F01F0303F1604303F56443BA795201D2B21A700837BD4680BD80B485B000AF0346FB710B4B1B78DBB223F01003FB730849FB791B01D4
:402F0000DBB203F01003DAB2FB7B1343DBB20B701437BD465DF8047B704700BFC051004080B582B000AF43F6BF5000F06BF843F6BF5000F083F8FFF73EFF0346FB710A4A15
:402F4000094B1B78DBB243F01003DBB21370FB791846FFF734FF00F081F8012000F036F80837BD4680BD00BF9B64004080B400AF054A054B1B78DBB263F07F03DBB21370E0
:402F8000BD465DF8047B70477B64004080B500AF054B1B78002B04D1FFF7C2FF024B01221A70FFF7E3FF80BD5481FF1F80B400AF054A054B1B78DBB203F07F03DBB21370BD
:402FC000BD465DF8047B70477B64004080B483B000AF0346FB71044AFB7913700C37BD465DF8047B704700BF8B64004080B400AF034B1B78DBB21846BD465DF8047B704718
:403000006B64004080B483B000AF0346FB80044AFB8813800C37BD465DF8047B704700BF5468004080B400AF034B1B889BB21846BD465DF8047B70479468004080B483B007
:4030400000AF0346FB80044AFB8813800C37BD465DF8047B704700BF1468004080B500AF01E0FFF7DFFFFFF7C1FF034603F00803002BF6D180BD00BF80B582B000AF7860BB
:4030800000F03CF8786800F009F8072000F018F800F028F80837BD4680BD00BF80B485B000AF7860054B1B68FB60FB6848337A681A601437BD465DF8047B704708ED00E0A0
:4030C00080B483B000AF0346FB71054AFB795B01DBB213700C37BD465DF8047B704700BF02E400E080B400AF034B04221A60BD465DF8047B704700BF00E100E080B400AFBE
:40310000034B04221A60BD465DF8047B704700BF80E100E080B485B000AF0346FB710B4B1B78DBB223F00803FB730849FB79DB00DBB203F00803DAB2FB7B1343DBB20B70B9
:403140001437BD465DF8047B704700BF6051004080B500AF254A254B1B78DBB203F00103DBB21370224A224B1B78DBB223F00303DBB213701D4A1D4B1B78DBB243F0040391
:40318000DBB213701B4A1B4B1B78DBB223F03003DBB21370174A174B1B78DBB243F03003DBB21370134A134B1B78DBB223F00F03DBB213700F4A0F4B1B78DBB243F00F033D
:4031C000DBB213700C4A0C4B1B78DBB243F00103DBB213704FF40D7000F054F84FF40D7000F062F8002000F03DF880BD0C4F00400E4F0040174F00400D4F004080B400AFC6
:403200000D4A0D4B1B78DBB243F00203DBB213700A4A0A4B1B78DBB243F00203DBB21370074A074B1B78DBB243F00103DBB21370BD465DF8047B7047A3430040B343004072
:403240000C4F004080B500AF054B1B78002B04D1FFF77EFF024B01221A70FFF7CFFF80BD5581FF1F80B483B000AF0346FB71044AFB7913700C37BD465DF8047B704700BFEA
:403280000F4F004080B485B000AF0346FB80FB88FB81044AFB8913801437BD465DF8047B704700BF104F004080B483B000AF0346FB80044AFB8813800C37BD465DF8047BA1
:4032C000704700BF124F004080B400AF054B1B78DBB203F00103DBB21846BD465DF8047B704700BF3151004080B400AF054B1B78DBB203F00103DBB21846BD465DF8047B67
:40330000704700BF8345004080B582B000AF786000F03CF8786800F009F8072000F018F800F028F80837BD4680BD00BF80B485B000AF7860054B1B68FB60FB6840337A68E1
:403340001A601437BD465DF8047B704708ED00E080B483B000AF0346FB71054AFB795B01DBB213700C37BD465DF8047B704700BF00E400E080B400AF034B01221A60BD4606
:403380005DF8047B704700BF00E100E080B400AF034B01221A60BD465DF8047B704700BF80E100E080B582B000AF786000F03CF8786800F009F8072000F018F800F028F88C
:4033C0000837BD4680BD00BF80B485B000AF7860054B1B68FB60FB6844337A681A601437BD465DF8047B704708ED00E080B483B000AF0346FB71054AFB795B01DBB2137093
:403400000C37BD465DF8047B704700BF01E400E080B400AF034B02221A60BD465DF8047B704700BF00E100E080B400AF034B02221A60BD465DF8047B704700BF80E100E0FD
:4034400080B485B000AF0346FB710B4B1B78DBB223F00403FB730849FB799B00DBB203F00403DAB2FB7B1343DBB20B701437BD465DF8047B704700BF6051004080B485B048
:4034800000AF0346FB71094B1B78DBB203F07F03FB730649FB79DB01DAB2FB7B1343DBB20B701437BD465DF8047B70470051004080B500AF204A204B1B78DBB203F0010318
:4034C000DBB213701D4A1D4B1B78DBB223F00303DBB213701A4A1A4B1B78DBB243F00103DBB21370174A174B1B78DBB223F03003DBB21370134A134B1B78DBB243F03003FA
:40350000DBB213700F4A0F4B1B78DBB223F00F03DBB213700B4A0B4B1B78DBB243F00F03DBB21370802000F08FF8802000F050F8002000F03DF880BD004F0040024F0040C2
:40354000014F00400B4F004080B400AF0D4A0D4B1B78DBB243F00103DBB213700A4A0A4B1B78DBB243F00103DBB21370074A074B1B78DBB243F00103DBB21370BD465DF8B6
:40358000047B7047A3430040B3430040004F004080B500AF054B1B78002B04D1FFF788FF024B01221A70FFF7CFFF80BD5681FF1F80B483B000AF0346FB71044AFB791370A6
:4035C0000C37BD465DF8047B704700BF034F004080B582B000AF0346FB71104B1B78DBB203F00103002B02D00020FFF7F1FB0B4A0A4B1B78DBB243F00103DBB21370084B09
:40360000FA7992B21A80054A044B1B78DBB223F00103DBB213700837BD4680BDA3430040064F004080B400AF054B1B88054B1B889BB2DBB21846BD465DF8047B704700BFCC
:40364000064F0040084F004080B483B000AF0346FB71044BFA7992B21A800C37BD465DF8047B7047044F004080B582B000AF0023FB710023BB711C4B1B78DBB203F00303DB
:40368000012B02D0022B04D012E0184B1B78BB710EE0164B1B78DBB203F07F02144913465B0013449B000B4408339B78BB7100BF104B1A68BB7913441B78022B09D0032B5A
:4036C00002D0012B0AD00AE0FEF758F90346FB7105E0FDF7C5FC0346FB7100E000BFFB7918460837BD4680BD0060004004600040088EFF1FF08DFF1F0E4B70B51E460E4CFF
:403700000025E41AA410A54204D056F8253098470135F8E700F024FA084B094C1E46E41AA4100025A54204D056F8253098470135F8E770BD6C3B00006C3B00006C3B0000FB
:40374000743B000010B5431E0A44914204D011F8014B03F8014FF8E710BD03460244934202D003F8011BFAE77047000000000000004F004018004051004020000000014075
:40378000001000140140000800400140000A004C01400002005001402000000002450040044F004002520040016400400203014002050140300A0140190B0140010D0140C1
:4037C000040E0140010F01400117014001190140074001400C410140114201400443014003460140064701400448014005490140014C0140025001400251014018037E02BB
:4038000001100A4B0D20164B1C017C408B0DEA08EE02E209EE01405449FF4AFF4BFF4F0150185A045F016040624064406540668068806A806C806E809201AE01B001BE01B3
:40384000C015C5ECC602C807C9FFCAFFCBFFCD83CE03CF01D018D280D401D604D804DA04DB04DF01E040E240E440E540E680E880EA80EC80EE800F8017801E804280478093
:4038800048014D044F81568057405D045E805F016780740177808740C210C480D011D218D6D0D880E201EE01AF0AB802BE05D804DF011F0AEE04EE04300231403480370238
:4038C0003880CCF0CE103380920294809A409C809D409F02A402AE41CC10EA10EE4014805A02664080408402920294809A409C809D40A402A780AB02C420D6C0E290EE80E3
:4039000066209D40A780D88082109C02A80208020B020E1096109C02C20E9D409E20AB80EE2029402A209D409E20CA10AB0100010C0100BF010A0000008080000000000002
:403940001000001010000000000000000000000000000000C00000000004000000000000007F7F0000000000010000010000000000000000000C0C00000000000D0A000024
:4039800030313233343536373839414243444546000000001201000202000008B40432F2010001048001000009024300020101C0320904000001020200020524001001044D
:4039C000240202052406000105240100010705810308000A09040100020A0000030705820240000A0705030240000A00040309042C03430079007000720065007300730024
:403A00002000530065006D00690063006F006E0064007500630074006F0072003803430044004300200043006F006D006D0075006E00690063006100740069006F006E008C
:403A4000200049006E007400650072006600610063006500260343004400430020004400610074006100200049006E0074006500720066006100630065001003550053009C
:403A800042005500410052005400000002030000320005010902A1010901A100050919012903150025019503750181029501750581010501093009311581257F750895027A
:403AC0008106C0C00000000000008103080002000100820240000A000100030240000A00020A000001000000A839000003000000C83A00000000000000000000000000001F
:403B00000000000000000000E03A0000010000009439000001000000E43A0000010000000C3B000012034D0053004600540031003000300001000000280000000001040028
:403B40000100000000000000000143595553420000003030303031000000000000000000F8B500BFF8BC08BC9E4670474D00000035060000F8B500BFF8BC08BC9E46704746
:403B800029000000983B00000881FF1F20000000880D0000000000000000000000C20100000008000090D00300FA0000400000000000007D000000000000000000000000C8
:403BC00000000000000000000000000000000000000000000000000000000000000000000000000000000000000000000000000000000000000000000000000000000000C5
:403C00000000000000000000000000000000000000000000000000000000000000000000000000000000000000000000000000000000000000000000000000000000000084
:403C40000000000000000000000000000000000000000000000000000000000000000000000000000000000000000000000000000000000000000000000000000000000044
:403C80000000000000000000000000000000000000000000000000000000000000000000000000000000000000000000000000000000000000000000000000000000000004
:0200000480007A
:0200000490006A
:040000000800C0052F
:0200000490105A
:04000000BC90ACAF55
:0200000490303A
:02000000723953
:0200000490402A
:4000000000000000000000000000000000000000000000000000000000000000000000000000000000000000000000000000000000000000000000000000000000000000C0
:400040000000000000000000000000000000000000000000000000000000000000000000000000000000000000000000000000000000000000000000000000000000000080
:400080000000000000000000000000000000000000000000000000000000000000000000000000000000000000000000000000000000000000000000000000000000000040
:4000C0000000000000000000000000000000000000000000000000000000000000000000000000000000000000000000000000000000000000000000000000000000000000
:0200000490501A
:0C00000000012E12306900012E28A2A27F
:00000001FF